{
    "address": "0x62F15Ee417c9e8EE94DC86A1Dc41B0a3bDaC9B14",
    "abi": [
        {
            "anonymous": false,
            "inputs": [
                {
                    "indexed": false,
                    "internalType": "uint256",
                    "name": "currentPhase",
                    "type": "uint256"
                },
                {
                    "indexed": false,
                    "internalType": "uint256",
                    "name": "_tokenAmount",
                    "type": "uint256"
                },
                {
                    "indexed": false,
                    "internalType": "address",
                    "name": "_address",
                    "type": "address"
                }
            ],
            "name": "AddUsersToVesting",
            "type": "event"
        },
        {
            "anonymous": false,
            "inputs": [
                {
                    "indexed": false,
                    "internalType": "address",
                    "name": "buyer",
                    "type": "address"
                },
                {
                    "indexed": false,
                    "internalType": "uint256",
                    "name": "id",
                    "type": "uint256"
                }
            ],
            "name": "Claims",
            "type": "event"
        },
        {
            "anonymous": false,
            "inputs": [
                {
                    "indexed": true,
                    "internalType": "address",
                    "name": "dispatcher",
                    "type": "address"
                }
            ],
            "name": "DispatcherChange",
            "type": "event"
        },
        {
            "anonymous": false,
            "inputs": [
                {
                    "indexed": false,
                    "internalType": "bool",
                    "name": "isPublic",
                    "type": "bool"
                },
                {
                    "indexed": false,
                    "internalType": "uint256",
                    "name": "minimunEntry",
                    "type": "uint256"
                },
                {
                    "indexed": false,
                    "internalType": "uint256",
                    "name": "price",
                    "type": "uint256"
                },
                {
                    "indexed": false,
                    "internalType": "uint256",
                    "name": "endAt",
                    "type": "uint256"
                },
                {
                    "indexed": false,
                    "internalType": "uint256",
                    "name": "supply",
                    "type": "uint256"
                }
            ],
            "name": "PhaseCreated",
            "type": "event"
        },
        {
            "anonymous": false,
            "inputs": [
                {
                    "indexed": false,
                    "internalType": "bool",
                    "name": "over",
                    "type": "bool"
                }
            ],
            "name": "PhaseOver",
            "type": "event"
        },
        {
            "anonymous": false,
            "inputs": [
                {
                    "indexed": true,
                    "internalType": "address",
                    "name": "account",
                    "type": "address"
                },
                {
                    "indexed": false,
                    "internalType": "uint256",
                    "name": "amount",
                    "type": "uint256"
                },
                {
                    "indexed": false,
                    "internalType": "uint256",
                    "name": "id",
                    "type": "uint256"
                }
            ],
            "name": "Purchase",
            "type": "event"
        },
        {
            "anonymous": false,
            "inputs": [
                {
                    "indexed": true,
                    "internalType": "bytes32",
                    "name": "role",
                    "type": "bytes32"
                },
                {
                    "indexed": true,
                    "internalType": "bytes32",
                    "name": "previousAdminRole",
                    "type": "bytes32"
                },
                {
                    "indexed": true,
                    "internalType": "bytes32",
                    "name": "newAdminRole",
                    "type": "bytes32"
                }
            ],
            "name": "RoleAdminChanged",
            "type": "event"
        },
        {
            "anonymous": false,
            "inputs": [
                {
                    "indexed": true,
                    "internalType": "bytes32",
                    "name": "role",
                    "type": "bytes32"
                },
                {
                    "indexed": true,
                    "internalType": "address",
                    "name": "account",
                    "type": "address"
                },
                {
                    "indexed": true,
                    "internalType": "address",
                    "name": "sender",
                    "type": "address"
                }
            ],
            "name": "RoleGranted",
            "type": "event"
        },
        {
            "anonymous": false,
            "inputs": [
                {
                    "indexed": true,
                    "internalType": "bytes32",
                    "name": "role",
                    "type": "bytes32"
                },
                {
                    "indexed": true,
                    "internalType": "address",
                    "name": "account",
                    "type": "address"
                },
                {
                    "indexed": true,
                    "internalType": "address",
                    "name": "sender",
                    "type": "address"
                }
            ],
            "name": "RoleRevoked",
            "type": "event"
        },
        {
            "anonymous": false,
            "inputs": [
                {
                    "indexed": false,
                    "internalType": "address",
                    "name": "recipient",
                    "type": "address"
                },
                {
                    "indexed": false,
                    "internalType": "uint256",
                    "name": "amount",
                    "type": "uint256"
                }
            ],
            "name": "Withdraw",
            "type": "event"
        },
        {
            "anonymous": false,
            "inputs": [
                {
                    "indexed": false,
                    "internalType": "address",
                    "name": "account",
                    "type": "address"
                },
                {
                    "indexed": false,
                    "internalType": "uint256",
                    "name": "amount",
                    "type": "uint256"
                }
            ],
            "name": "WithdrawBUSD",
            "type": "event"
        },
        {
            "inputs": [],
            "name": "BUSDaddress",
            "outputs": [
                {
                    "internalType": "address",
                    "name": "",
                    "type": "address"
                }
            ],
            "stateMutability": "view",
            "type": "function"
        },
        {
            "inputs": [],
            "name": "DEFAULT_ADMIN_ROLE",
            "outputs": [
                {
                    "internalType": "bytes32",
                    "name": "",
                    "type": "bytes32"
                }
            ],
            "stateMutability": "view",
            "type": "function"
        },
        {
            "inputs": [],
            "name": "TOKEN",
            "outputs": [
                {
                    "internalType": "address",
                    "name": "",
                    "type": "address"
                }
            ],
            "stateMutability": "view",
            "type": "function"
        },
        {
            "inputs": [
                {
                    "internalType": "address[]",
                    "name": "_accounts",
                    "type": "address[]"
                }
            ],
            "name": "addToWhitelist",
            "outputs": [],
            "stateMutability": "nonpayable",
            "type": "function"
        },
        {
            "inputs": [
                {
                    "internalType": "uint256",
                    "name": "_tokenAmount",
                    "type": "uint256"
                },
                {
                    "internalType": "address",
                    "name": "_address",
                    "type": "address"
                }
            ],
            "name": "addUsersToVesting",
            "outputs": [],
            "stateMutability": "nonpayable",
            "type": "function"
        },
        {
            "inputs": [
                {
                    "internalType": "address",
                    "name": "",
                    "type": "address"
                },
                {
                    "internalType": "uint256",
                    "name": "",
                    "type": "uint256"
                }
            ],
            "name": "allIDSforUser",
            "outputs": [
                {
                    "internalType": "uint256",
                    "name": "",
                    "type": "uint256"
                }
            ],
            "stateMutability": "view",
            "type": "function"
        },
        {
            "inputs": [
                {
                    "internalType": "uint256",
                    "name": "_tokenAmountDesired",
                    "type": "uint256"
                }
            ],
            "name": "buyTokenWithBUSD",
            "outputs": [],
            "stateMutability": "nonpayable",
            "type": "function"
        },
        {
            "inputs": [
                {
                    "internalType": "uint256",
                    "name": "_tokenAmountDesired",
                    "type": "uint256"
                }
            ],
            "name": "buyTokenWithToken",
            "outputs": [],
            "stateMutability": "nonpayable",
            "type": "function"
        },
        {
            "inputs": [],
            "name": "cancelPhase",
            "outputs": [],
            "stateMutability": "nonpayable",
            "type": "function"
        },
        {
            "inputs": [
                {
                    "internalType": "address",
                    "name": "_newBUSDAddress",
                    "type": "address"
                }
            ],
            "name": "changeBUSDAddress",
            "outputs": [],
            "stateMutability": "nonpayable",
            "type": "function"
        },
        {
            "inputs": [
                {
                    "internalType": "address",
                    "name": "_dispatcher",
                    "type": "address"
                }
            ],
            "name": "changeDispatcher",
            "outputs": [],
            "stateMutability": "nonpayable",
            "type": "function"
        },
        {
            "inputs": [
                {
                    "internalType": "uint256",
                    "name": "_newEndDate",
                    "type": "uint256"
                }
            ],
            "name": "changeEndDate",
            "outputs": [],
            "stateMutability": "nonpayable",
            "type": "function"
        },
        {
            "inputs": [
                {
                    "internalType": "address",
                    "name": "_newAddress",
                    "type": "address"
                }
            ],
            "name": "changeTokenAddress",
            "outputs": [],
            "stateMutability": "nonpayable",
            "type": "function"
        },
        {
            "inputs": [
                {
                    "internalType": "bool",
                    "name": "_isPublic",
                    "type": "bool"
                },
                {
                    "internalType": "uint256",
                    "name": "_minimunEntry",
                    "type": "uint256"
                },
                {
                    "internalType": "uint256",
                    "name": "_price",
                    "type": "uint256"
                },
                {
                    "internalType": "uint256",
                    "name": "_endAt",
                    "type": "uint256"
                },
                {
                    "internalType": "uint256",
                    "name": "_supply",
                    "type": "uint256"
                },
                {
                    "internalType": "uint256",
                    "name": "_timeLock",
                    "type": "uint256"
                },
                {
                    "internalType": "uint256[]",
                    "name": "_timesToRelease",
                    "type": "uint256[]"
                },
                {
                    "internalType": "uint256[]",
                    "name": "_percentsToRelease",
                    "type": "uint256[]"
                }
            ],
            "name": "createPhase",
            "outputs": [],
            "stateMutability": "nonpayable",
            "type": "function"
        },
        {
            "inputs": [],
            "name": "currentPhase",
            "outputs": [
                {
                    "internalType": "uint256",
                    "name": "",
                    "type": "uint256"
                }
            ],
            "stateMutability": "view",
            "type": "function"
        },
        {
            "inputs": [],
            "name": "dispatcher",
            "outputs": [
                {
                    "internalType": "address",
                    "name": "",
                    "type": "address"
                }
            ],
            "stateMutability": "view",
            "type": "function"
        },
        {
            "inputs": [],
            "name": "getCurrentSupplyRemain",
            "outputs": [
                {
                    "internalType": "uint256",
                    "name": "",
                    "type": "uint256"
                }
            ],
            "stateMutability": "view",
            "type": "function"
        },
        {
            "inputs": [
                {
                    "internalType": "address",
                    "name": "_address",
                    "type": "address"
                }
            ],
            "name": "getIDs",
            "outputs": [
                {
                    "internalType": "uint256[]",
                    "name": "",
                    "type": "uint256[]"
                }
            ],
            "stateMutability": "view",
            "type": "function"
        },
        {
            "inputs": [],
            "name": "getLatestPrice",
            "outputs": [
                {
                    "internalType": "uint256",
                    "name": "",
                    "type": "uint256"
                }
            ],
            "stateMutability": "view",
            "type": "function"
        },
        {
            "inputs": [
                {
                    "internalType": "uint256",
                    "name": "_id",
                    "type": "uint256"
                }
            ],
            "name": "getPercentsToReleaseForID",
            "outputs": [
                {
                    "internalType": "uint256[]",
                    "name": "",
                    "type": "uint256[]"
                }
            ],
            "stateMutability": "view",
            "type": "function"
        },
        {
            "inputs": [
                {
                    "internalType": "bytes32",
                    "name": "role",
                    "type": "bytes32"
                }
            ],
            "name": "getRoleAdmin",
            "outputs": [
                {
                    "internalType": "bytes32",
                    "name": "",
                    "type": "bytes32"
                }
            ],
            "stateMutability": "view",
            "type": "function"
        },
        {
            "inputs": [
                {
                    "internalType": "uint256",
                    "name": "_id",
                    "type": "uint256"
                }
            ],
            "name": "getTimesToReleaseForID",
            "outputs": [
                {
                    "internalType": "uint256[]",
                    "name": "",
                    "type": "uint256[]"
                }
            ],
            "stateMutability": "view",
            "type": "function"
        },
        {
            "inputs": [],
            "name": "getVestingPercentPhase",
            "outputs": [
                {
                    "internalType": "uint256[]",
                    "name": "",
                    "type": "uint256[]"
                }
            ],
            "stateMutability": "view",
            "type": "function"
        },
        {
            "inputs": [],
            "name": "getVestingTimePhase",
            "outputs": [
                {
                    "internalType": "uint256[]",
                    "name": "",
                    "type": "uint256[]"
                }
            ],
            "stateMutability": "view",
            "type": "function"
        },
        {
            "inputs": [
                {
                    "internalType": "uint256",
                    "name": "_id",
                    "type": "uint256"
                }
            ],
            "name": "getWhenIsTheNextClaim",
            "outputs": [
                {
                    "internalType": "uint256",
                    "name": "",
                    "type": "uint256"
                }
            ],
            "stateMutability": "view",
            "type": "function"
        },
        {
            "inputs": [],
            "name": "getWhitelist",
            "outputs": [
                {
                    "internalType": "address[]",
                    "name": "",
                    "type": "address[]"
                }
            ],
            "stateMutability": "view",
            "type": "function"
        },
        {
            "inputs": [],
            "name": "getcurrentPhase",
            "outputs": [
                {
                    "components": [
                        {
                            "internalType": "bool",
                            "name": "isPublic",
                            "type": "bool"
                        },
                        {
                            "internalType": "uint256",
                            "name": "minimunEntry",
                            "type": "uint256"
                        },
                        {
                            "internalType": "uint256",
                            "name": "price",
                            "type": "uint256"
                        },
                        {
                            "internalType": "uint256",
                            "name": "endAt",
                            "type": "uint256"
                        },
                        {
                            "internalType": "uint256",
                            "name": "supply",
                            "type": "uint256"
                        },
                        {
                            "internalType": "bool",
                            "name": "over",
                            "type": "bool"
                        },
                        {
                            "internalType": "uint256",
                            "name": "timelock",
                            "type": "uint256"
                        },
                        {
                            "internalType": "uint256[]",
                            "name": "timesToRelease",
                            "type": "uint256[]"
                        },
                        {
                            "internalType": "uint256[]",
                            "name": "percentsToRelease",
                            "type": "uint256[]"
                        }
                    ],
                    "internalType": "struct Sale.Phase",
                    "name": "",
                    "type": "tuple"
                }
            ],
            "stateMutability": "view",
            "type": "function"
        },
        {
            "inputs": [
                {
                    "internalType": "bytes32",
                    "name": "role",
                    "type": "bytes32"
                },
                {
                    "internalType": "address",
                    "name": "account",
                    "type": "address"
                }
            ],
            "name": "grantRole",
            "outputs": [],
            "stateMutability": "nonpayable",
            "type": "function"
        },
        {
            "inputs": [
                {
                    "internalType": "bytes32",
                    "name": "role",
                    "type": "bytes32"
                },
                {
                    "internalType": "address",
                    "name": "account",
                    "type": "address"
                }
            ],
            "name": "hasRole",
            "outputs": [
                {
                    "internalType": "bool",
                    "name": "",
                    "type": "bool"
                }
            ],
            "stateMutability": "view",
            "type": "function"
        },
        {
            "inputs": [],
            "name": "id",
            "outputs": [
                {
                    "internalType": "uint256",
                    "name": "",
                    "type": "uint256"
                }
            ],
            "stateMutability": "view",
            "type": "function"
        },
        {
            "inputs": [
                {
                    "internalType": "uint256",
                    "name": "_maxSupply",
                    "type": "uint256"
                },
                {
                    "internalType": "address",
                    "name": "_dispatcher",
                    "type": "address"
                },
                {
                    "internalType": "address",
                    "name": "_tokenAddress",
                    "type": "address"
                },
                {
                    "internalType": "address",
                    "name": "_BUSDADDRESS",
                    "type": "address"
                }
            ],
            "name": "initialize",
            "outputs": [],
            "stateMutability": "nonpayable",
            "type": "function"
        },
        {
            "inputs": [
                {
                    "internalType": "uint256",
                    "name": "",
                    "type": "uint256"
                }
            ],
            "name": "phases",
            "outputs": [
                {
                    "internalType": "bool",
                    "name": "isPublic",
                    "type": "bool"
                },
                {
                    "internalType": "uint256",
                    "name": "minimunEntry",
                    "type": "uint256"
                },
                {
                    "internalType": "uint256",
                    "name": "price",
                    "type": "uint256"
                },
                {
                    "internalType": "uint256",
                    "name": "endAt",
                    "type": "uint256"
                },
                {
                    "internalType": "uint256",
                    "name": "supply",
                    "type": "uint256"
                },
                {
                    "internalType": "bool",
                    "name": "over",
                    "type": "bool"
                },
                {
                    "internalType": "uint256",
                    "name": "timelock",
                    "type": "uint256"
                }
            ],
            "stateMutability": "view",
            "type": "function"
        },
        {
            "inputs": [
                {
                    "internalType": "uint256",
                    "name": "_id",
                    "type": "uint256"
                }
            ],
            "name": "release",
            "outputs": [
                {
                    "internalType": "bool",
                    "name": "",
                    "type": "bool"
                }
            ],
            "stateMutability": "nonpayable",
            "type": "function"
        },
        {
            "inputs": [],
            "name": "removeWhitelistedAddress",
            "outputs": [],
            "stateMutability": "nonpayable",
            "type": "function"
        },
        {
            "inputs": [
                {
                    "internalType": "bytes32",
                    "name": "role",
                    "type": "bytes32"
                },
                {
                    "internalType": "address",
                    "name": "account",
                    "type": "address"
                }
            ],
            "name": "renounceRole",
            "outputs": [],
            "stateMutability": "nonpayable",
            "type": "function"
        },
        {
            "inputs": [
                {
                    "internalType": "bytes32",
                    "name": "role",
                    "type": "bytes32"
                },
                {
                    "internalType": "address",
                    "name": "account",
                    "type": "address"
                }
            ],
            "name": "revokeRole",
            "outputs": [],
            "stateMutability": "nonpayable",
            "type": "function"
        },
        {
            "inputs": [
                {
                    "internalType": "address",
                    "name": "_usdtAddress",
                    "type": "address"
                }
            ],
            "name": "setTOKENAddress",
            "outputs": [],
            "stateMutability": "nonpayable",
            "type": "function"
        },
        {
            "inputs": [
                {
                    "internalType": "uint256",
                    "name": "_id",
                    "type": "uint256"
                }
            ],
            "name": "showMyRemainAmount",
            "outputs": [
                {
                    "internalType": "uint256",
                    "name": "",
                    "type": "uint256"
                }
            ],
            "stateMutability": "view",
            "type": "function"
        },
        {
            "inputs": [
                {
                    "internalType": "uint256",
                    "name": "_id",
                    "type": "uint256"
                }
            ],
            "name": "showMyToClaimAllAmount",
            "outputs": [
                {
                    "internalType": "uint256",
                    "name": "",
                    "type": "uint256"
                }
            ],
            "stateMutability": "view",
            "type": "function"
        },
        {
            "inputs": [
                {
                    "internalType": "uint256",
                    "name": "_id",
                    "type": "uint256"
                }
            ],
            "name": "showMyToClaimAmount",
            "outputs": [
                {
                    "internalType": "uint256",
                    "name": "",
                    "type": "uint256"
                }
            ],
            "stateMutability": "view",
            "type": "function"
        },
        {
            "inputs": [
                {
                    "internalType": "uint256",
                    "name": "_id",
                    "type": "uint256"
                }
            ],
            "name": "showMyinitAmount",
            "outputs": [
                {
                    "internalType": "uint256",
                    "name": "",
                    "type": "uint256"
                }
            ],
            "stateMutability": "view",
            "type": "function"
        },
        {
            "inputs": [
                {
                    "internalType": "bytes4",
                    "name": "interfaceId",
                    "type": "bytes4"
                }
            ],
            "name": "supportsInterface",
            "outputs": [
                {
                    "internalType": "bool",
                    "name": "",
                    "type": "bool"
                }
            ],
            "stateMutability": "view",
            "type": "function"
        },
        {
            "inputs": [],
            "name": "tokenAddress",
            "outputs": [
                {
                    "internalType": "address",
                    "name": "",
                    "type": "address"
                }
            ],
            "stateMutability": "view",
            "type": "function"
        },
        {
            "inputs": [
                {
                    "internalType": "uint256",
                    "name": "",
                    "type": "uint256"
                }
            ],
            "name": "tokenLocksForSale",
            "outputs": [
                {
                    "internalType": "address",
                    "name": "owner",
                    "type": "address"
                },
                {
                    "internalType": "uint256",
                    "name": "initAmount",
                    "type": "uint256"
                },
                {
                    "internalType": "uint256",
                    "name": "remainAmount",
                    "type": "uint256"
                }
            ],
            "stateMutability": "view",
            "type": "function"
        },
        {
            "inputs": [],
            "name": "tokensRemainForSale",
            "outputs": [
                {
                    "internalType": "uint256",
                    "name": "",
                    "type": "uint256"
                }
            ],
            "stateMutability": "view",
            "type": "function"
        },
        {
            "inputs": [
                {
                    "internalType": "uint256",
                    "name": "",
                    "type": "uint256"
                }
            ],
            "name": "whitelistArr",
            "outputs": [
                {
                    "internalType": "address",
                    "name": "",
                    "type": "address"
                }
            ],
            "stateMutability": "view",
            "type": "function"
        },
        {
            "inputs": [
                {
                    "internalType": "address",
                    "name": "_account",
                    "type": "address"
                },
                {
                    "internalType": "uint256",
                    "name": "_amount",
                    "type": "uint256"
                }
            ],
            "name": "withdraw",
            "outputs": [],
            "stateMutability": "nonpayable",
            "type": "function"
        },
        {
            "inputs": [
                {
                    "internalType": "address",
                    "name": "_account",
                    "type": "address"
                },
                {
                    "internalType": "uint256",
                    "name": "_amount",
                    "type": "uint256"
                }
            ],
            "name": "withdrawBUSD",
            "outputs": [],
            "stateMutability": "nonpayable",
            "type": "function"
        },
        {
            "stateMutability": "payable",
            "type": "receive"
        }
    ],
    "transactionHash": "0x89508c9d2b2ae6e3ca03eec3584d9b7bfdd239e6ab47aa173a1432f00b8f5a58",
    "args": [],
    "solcInputHash": "4a4d4adc14f7c149df65bb400a48614c",
    "bytecode": "0x608060405234801561001057600080fd5b50613b85806100206000396000f3fe6080604052600436106102975760003560e01c8063916385f81161015a578063cb7e9057116100c1578063f3fef3a31161007a578063f3fef3a3146108c6578063f795077b146108e6578063f8185702146108fb578063f8ad78941461091b578063fadcb54c1461093b578063fd7ddc6f1461095b57600080fd5b8063cb7e905714610804578063cc58cede14610824578063d01f63f514610844578063d547741f14610866578063ee356ec014610886578063f2241738146108a657600080fd5b8063af640d0f11610113578063af640d0f1461074c578063b68f027714610762578063bb543f5f14610782578063be38341d146107a4578063c930d143146107c4578063c9cda91f146107e457600080fd5b8063916385f81461069157806391d14854146106c15780639ba81a3c146106e15780639d76ea58146107015780639def891014610721578063a217fddf1461073757600080fd5b80633d2d1900116101fe5780637e2be3a3116101b75780637e2be3a3146105915780637f649783146105b15780637f811d4f146105d157806382bfefc81461063c5780638a44b0441461065c5780638e15f4731461067c57600080fd5b80633d2d1900146104b057806345737b1e146104d257806362d0dd0e146104f2578063699de16214610519578063754d1d54146105395780637a67bbfd1461055957600080fd5b8063248a9ca311610250578063248a9ca3146103735780632e37eef6146103a35780632f2ff15d1461043b57806334279b681461045b57806336568abe1461047057806337bdc99b1461049057600080fd5b806301ffc9a7146102a3578063044b3704146102d8578063055ad42e146103065780630a33c90a1461031c5780630f25941a1461033e578063229f024f1461035357600080fd5b3661029e57005b600080fd5b3480156102af57600080fd5b506102c36102be36600461360d565b61098b565b60405190151581526020015b60405180910390f35b3480156102e457600080fd5b506102f86102f336600461343b565b6109c2565b6040519081526020016102cf565b34801561031257600080fd5b506102f860ce5481565b34801561032857600080fd5b5061033c610337366004613420565b6109f3565b005b34801561034a57600080fd5b5061033c610a56565b34801561035f57600080fd5b5061033c61036e366004613420565b610bcd565b34801561037f57600080fd5b506102f861038e3660046135c8565b60009081526065602052604090206001015490565b3480156103af57600080fd5b506104026103be3660046135c8565b60ca60205260009081526040902080546001820154600283015460038401546004850154600586015460069096015460ff9586169694959394929391929091169087565b60408051971515885260208801969096529486019390935260608501919091526080840152151560a083015260c082015260e0016102cf565b34801561044757600080fd5b5061033c6104563660046135e1565b610bfc565b34801561046757600080fd5b5061033c610c27565b34801561047c57600080fd5b5061033c61048b3660046135e1565b610cd0565b34801561049c57600080fd5b506102c36104ab3660046135c8565b610d4a565b3480156104bc57600080fd5b506104c561114a565b6040516102cf91906137fd565b3480156104de57600080fd5b5061033c6104ed3660046135c8565b6111b0565b3480156104fe57600080fd5b5060ce54600090815260ca60205260409020600401546102f8565b34801561052557600080fd5b5061033c6105343660046135e1565b6111e0565b34801561054557600080fd5b5061033c610554366004613637565b6114d2565b34801561056557600080fd5b5060d354610579906001600160a01b031681565b6040516001600160a01b0390911681526020016102cf565b34801561059d57600080fd5b506102f86105ac3660046135c8565b6115cf565b3480156105bd57600080fd5b5061033c6105cc366004613465565b61168b565b3480156105dd57600080fd5b506106176105ec3660046135c8565b60cd602052600090815260409020805460018201546002909201546001600160a01b03909116919083565b604080516001600160a01b0390941684526020840192909252908201526060016102cf565b34801561064857600080fd5b5060d554610579906001600160a01b031681565b34801561066857600080fd5b506102f86106773660046135c8565b611713565b34801561068857600080fd5b506102f86117e6565b34801561069d57600080fd5b506102f86106ac3660046135c8565b600090815260cd602052604090206002015490565b3480156106cd57600080fd5b506102c36106dc3660046135e1565b61188c565b3480156106ed57600080fd5b506104c56106fc3660046135c8565b6118b7565b34801561070d57600080fd5b5060d254610579906001600160a01b031681565b34801561072d57600080fd5b506102f860d05481565b34801561074357600080fd5b506102f8600081565b34801561075857600080fd5b506102f860cf5481565b34801561076e57600080fd5b506104c561077d3660046135c8565b61191c565b34801561078e57600080fd5b5061079761197f565b6040516102cf9190613918565b3480156107b057600080fd5b506105796107bf3660046135c8565b611aed565b3480156107d057600080fd5b5061033c6107df366004613420565b611b17565b3480156107f057600080fd5b5061033c6107ff366004613420565b611b46565b34801561081057600080fd5b5060d154610579906001600160a01b031681565b34801561083057600080fd5b5061033c61083f3660046135c8565b611b75565b34801561085057600080fd5b50610859612099565b6040516102cf91906137b0565b34801561087257600080fd5b5061033c6108813660046135e1565b6120fa565b34801561089257600080fd5b5061033c6108a13660046135c8565b612120565b3480156108b257600080fd5b5061033c6108c136600461343b565b6122ee565b3480156108d257600080fd5b5061033c6108e136600461343b565b612438565b3480156108f257600080fd5b506104c56124e2565b34801561090757600080fd5b506104c5610916366004613420565b612546565b34801561092757600080fd5b506102f86109363660046135c8565b6125b0565b34801561094757600080fd5b5061033c610956366004613521565b6126fc565b34801561096757600080fd5b506102f86109763660046135c8565b600090815260cd602052604090206001015490565b60006001600160e01b03198216637965db0b60e01b14806109bc57506301ffc9a760e01b6001600160e01b03198316145b92915050565b60cb60205281600052604060002081815481106109de57600080fd5b90600052602060002001600091509150505481565b60006109ff8133612c21565b6040516001600160a01b038316907f92b885c3da6a6d52c13130f8dcaa55efff1188d78078bd0aac02fc01ed493faf90600090a25060d180546001600160a01b0319166001600160a01b0392909216919091179055565b6000610a628133612c21565b60ce54600090815260ca602052604090206005015460ff1615610aa05760405162461bcd60e51b8152600401610a979061384e565b60405180910390fd5b60ce54600090815260ca602052604090206004015415610b745760d25460d15460ce54600090815260ca602052604090819020600490810154915163a9059cbb60e01b81526001600160a01b0393841691810191909152602481019190915291169063a9059cbb90604401602060405180830381600087803b158015610b2557600080fd5b505af1158015610b39573d6000803e3d6000fd5b505050506040513d601f19601f82011682018060405250810190610b5d9190613504565b5060ce54600090815260ca60205260408120600401555b60ce54600090815260ca6020908152604091829020600501805460ff1916600190811790915591519182527f0773b1bc4292ec2db340bde1f65478f936986eaca8deee2c306b42c31c27f4ad910160405180910390a150565b6000610bd98133612c21565b5060d380546001600160a01b0319166001600160a01b0392909216919091179055565b600082815260656020526040902060010154610c188133612c21565b610c228383612c85565b505050565b6000610c338133612c21565b60005b60d454811015610ccc57600060cc600060d48481548110610c5957610c59613b15565b6000918252602080832091909101546001600160a01b031683528201929092526040019020805460ff191691151591909117905560d4805482908110610ca157610ca1613b15565b600091825260209091200180546001600160a01b031916905580610cc481613ae4565b915050610c36565b5050565b6001600160a01b0381163314610d405760405162461bcd60e51b815260206004820152602f60248201527f416363657373436f6e74726f6c3a2063616e206f6e6c792072656e6f756e636560448201526e103937b632b9903337b91039b2b63360891b6064820152608401610a97565b610ccc8282612d0b565b600081815260cd602052604081205481906001600160a01b03163314610da85760405162461bcd60e51b8152602060048201526013602482015272151a1a5cc81a5cc81b9bdd081e5bdd5c881a59606a1b6044820152606401610a97565b600083815260cd6020526040902060020154610dfd5760405162461bcd60e51b8152602060048201526014602482015273416c726561647920636c61696d20746f6b656e7360601b6044820152606401610a97565b60005b600084815260cd602052604090206003015481101561109357600084815260cd60205260409020600301805482908110610e3c57610e3c613b15565b90600052602060002001544210158015610e9d5750600084815260cd602052604081206003810180546005909201929184908110610e7c57610e7c613b15565b6000918252602080832090910154835282019290925260400190205460ff16155b156110815760d254600085815260cd602052604090208054600490910180546001600160a01b039384169363a9059cbb93169160649186908110610ee357610ee3613b15565b906000526020600020015460cd60008a815260200190815260200160002060010154610f0f9190613a67565b610f199190613a45565b6040516001600160e01b031960e085901b1681526001600160a01b0390921660048301526024820152604401602060405180830381600087803b158015610f5f57600080fd5b505af1158015610f73573d6000803e3d6000fd5b505050506040513d601f19601f82011682018060405250810190610f979190613504565b50600084815260cd60205260408120600381018054600193600590930192919085908110610fc757610fc7613b15565b9060005260206000200154815260200190815260200160002060006101000a81548160ff021916908315150217905550606460cd6000868152602001908152602001600020600401828154811061102057611020613b15565b906000526020600020015460cd60008781526020019081526020016000206001015461104c9190613a67565b6110569190613a45565b600085815260cd602052604081206002018054909190611077908490613a86565b9091555060019250505b8061108b81613ae4565b915050610e00565b50806110ed5760405162461bcd60e51b815260206004820152602360248201527f43757272656e742074696d65206973206265666f72652072656c656173652074604482015262696d6560e81b6064820152608401610a97565b600083815260cd60209081526040918290205460cf5483516001600160a01b039092168252918101919091527fc88fae5b8386808973dd739aabbcdc7b9a247773ca88a1338c13730eadcf198a910160405180910390a192915050565b60ce54600090815260ca60209081526040918290206008018054835181840281018401909452808452606093928301828280156111a657602002820191906000526020600020905b815481526020019060010190808311611192575b5050505050905090565b60006111bc8133612c21565b8142106111c857600080fd5b5060ce54600090815260ca6020526040902060030155565b60006111ec8133612c21565b60ce54600090815260ca6020526040902060030154421061121f5760405162461bcd60e51b8152600401610a979061384e565b60ce54600090815260ca60205260409020600401548311156112535760405162461bcd60e51b8152600401610a9790613823565b60ce54600090815260ca6020526040902060060154156113825760cf805490600061127d83613ae4565b90915550506001600160a01b038216600081815260cb6020908152604080832060cf805482546001818101855593875285872001558054855260cd845282852080546001600160a01b03191690961790955584548452818420018790559254825282822060020186905560ce54825260ca8152908290206007018054835181840281018401909452808452611346939283018282801561133c57602002820191906000526020600020905b815481526020019060010190808311611328575b5050505050612d72565b60ce54600090815260ca6020908152604080832060cf54845260cd9092529091206008909101805461137c926004019190613283565b5061140a565b60d25460405163a9059cbb60e01b81526001600160a01b038481166004830152602482018690529091169063a9059cbb90604401602060405180830381600087803b1580156113d057600080fd5b505af11580156113e4573d6000803e3d6000fd5b505050506040513d601f19601f820116820180604052508101906114089190613504565b505b60ce54600090815260ca60205260408120600401805485929061142e908490613a86565b909155505060ce54600090815260ca602052604090206004015461146c5760ce54600090815260ca60205260409020600501805460ff191660011790555b8260d0600082825461147e9190613a86565b909155505060ce5460408051918252602082018590526001600160a01b03841682820152517fc45df7e0c5982c4770fdd0c17294d4104d8fce3389909de62cfd119a25e428f29181900360600190a1505050565b600054610100900460ff16806114eb575060005460ff16155b6115075760405162461bcd60e51b8152600401610a9790613893565b600054610100900460ff16158015611529576000805461ffff19166101011790555b611531612de3565b61153c600033612e67565b600060ce81905560d086905560d180546001600160a01b038088166001600160a01b03199283161790925560d2805487841690831617905591805260ca6020527f992e0e3e7050db88ec37ec33505f46a9813ea5551fe17ef58dc201344bcbaf98805460ff1916600117905560d380549185169190921617905580156115c8576000805461ff00191690555b5050505050565b6000805b600083815260cd602052604090206003015481101561168257600083815260cd60205260408120600381018054600590920192918490811061161757611617613b15565b6000918252602080832090910154835282019290925260400190205460ff1661167057600083815260cd6020526040902060030180548290811061165d5761165d613b15565b9060005260206000200154915050919050565b8061167a81613ae4565b9150506115d3565b50600092915050565b60006116978133612c21565b60005b82518110156116ff57600160cc60008584815181106116bb576116bb613b15565b6020908102919091018101516001600160a01b03168252810191909152604001600020805460ff1916911515919091179055806116f781613ae4565b91505061169a565b508151610c229060d49060208501906132d3565b6000805b600083815260cd602052604090206003015481101561168257600083815260cd60205260408120600381018054600590920192918490811061175b5761175b613b15565b6000918252602080832090910154835282019290925260400190205460ff166117d457600083815260cd602052604090206004018054829081106117a1576117a1613b15565b906000526020600020015460cd6000858152602001908152602001600020600101546117cd9190613a67565b9392505050565b806117de81613ae4565b915050611717565b60008060c960009054906101000a90046001600160a01b03166001600160a01b031663feaf968c6040518163ffffffff1660e01b815260040160a06040518083038186803b15801561183757600080fd5b505afa15801561184b573d6000803e3d6000fd5b505050506040513d601f19601f8201168201806040525081019061186f9190613684565b505050915050806402540be4006118869190613a67565b91505090565b60009182526065602090815260408084206001600160a01b0393909316845291905290205460ff1690565b600081815260cd602090815260409182902060040180548351818402810184019094528084526060939283018282801561191057602002820191906000526020600020905b8154815260200190600101908083116118fc575b50505050509050919050565b600081815260cd602090815260409182902060030180548351818402810184019094528084526060939283018282801561191057602002820191906000526020600020908154815260200190600101908083116118fc5750505050509050919050565b6119d2604051806101200160405280600015158152602001600081526020016000815260200160008152602001600081526020016000151581526020016000815260200160608152602001606081525090565b60ce54600090815260ca6020908152604091829020825161012081018452815460ff908116151582526001830154828501526002830154828601526003830154606083015260048301546080830152600583015416151560a0820152600682015460c08201526007820180548551818602810186019096528086529194929360e08601939290830182828015611a8757602002820191906000526020600020905b815481526020019060010190808311611a73575b5050505050815260200160088201805480602002602001604051908101604052809291908181526020018280548015611adf57602002820191906000526020600020905b815481526020019060010190808311611acb575b505050505081525050905090565b60d48181548110611afd57600080fd5b6000918252602090912001546001600160a01b0316905081565b6000611b238133612c21565b5060d580546001600160a01b0319166001600160a01b0392909216919091179055565b6000611b528133612c21565b5060d280546001600160a01b0319166001600160a01b0392909216919091179055565b60ce54600090815260ca602052604090205460ff16611be55733600090815260cc602052604090205460ff16611be55760405162461bcd60e51b815260206004820152601560248201527454686973207068617365206973207072697661746560581b6044820152606401610a97565b60026097541415611c085760405162461bcd60e51b8152600401610a97906138e1565b600260975560d5546001600160a01b0316611c2257600080fd5b60ce54600090815260ca6020526040812060020154611c5690670de0b6b3a764000090611c50908590612e71565b90612e7d565b60ce54600090815260ca60205260409020600301549091504210611c8c5760405162461bcd60e51b8152600401610a979061384e565b60ce54600090815260ca6020526040902060040154821115611cc05760405162461bcd60e51b8152600401610a9790613823565b60ce54600090815260ca6020526040902060010154821015611d1f5760405162461bcd60e51b815260206004820152601860248201527754686572652061726520746f6f2066657720746f6b656e7360401b6044820152606401610a97565b60d5546040516323b872dd60e01b8152336004820152306024820152604481018390526001600160a01b03909116906323b872dd906064015b602060405180830381600087803b158015611d7257600080fd5b505af1158015611d86573d6000803e3d6000fd5b505050506040513d601f19601f82011682018060405250810190611daa9190613504565b611ded5760405162461bcd60e51b815260206004820152601460248201527311985a5b1959081d1c985b9cd9995c88109554d160621b6044820152606401610a97565b60cf8054906000611dfd83613ae4565b909155505060ce54600090815260ca602052604090206006015415611ef45760cf8054600090815260cd6020908152604080832080546001600160a01b03191633179055835483528083206001018690559254825282822060020185905560ce54825260ca8152908290206007018054835181840281018401909452808452611eb8939283018282801561133c5760200282019190600052602060002090815481526020019060010190808311611328575050505050612d72565b60ce54600090815260ca6020908152604080832060cf54845260cd90925290912060089091018054611eee926004019190613283565b50611f7a565b60d25460405163a9059cbb60e01b8152336004820152602481018490526001600160a01b039091169063a9059cbb90604401602060405180830381600087803b158015611f4057600080fd5b505af1158015611f54573d6000803e3d6000fd5b505050506040513d601f19601f82011682018060405250810190611f789190613504565b505b33600090815260cb6020908152604080832060cf5481546001810183559185528385209091015560ce54835260ca90915281206004018054849290611fc0908490613a86565b909155505060ce54600090815260ca60205260409020600401546120355760ce54600090815260ca6020908152604091829020600501805460ff1916600190811790915591519182527f0773b1bc4292ec2db340bde1f65478f936986eaca8deee2c306b42c31c27f4ad910160405180910390a15b8160d060008282546120479190613a86565b909155505060cf5460405133917f12cb4648cf3058b17ceeb33e579f8b0bc269fe0843f3900b8e24b6c54871703c9161208891868252602082015260400190565b60405180910390a250506001609755565b606060d48054806020026020016040519081016040528092919081815260200182805480156111a657602002820191906000526020600020905b81546001600160a01b031681526001909101906020018083116120d3575050505050905090565b6000828152606560205260409020600101546121168133612c21565b610c228383612d0b565b60ce54600090815260ca602052604090205460ff166121905733600090815260cc602052604090205460ff166121905760405162461bcd60e51b815260206004820152601560248201527454686973207068617365206973207072697661746560581b6044820152606401610a97565b600260975414156121b35760405162461bcd60e51b8152600401610a97906138e1565b6002609781905560ce54600090815260ca60205260408120909101546121e890670de0b6b3a764000090611c50908590612e71565b60ce54600090815260ca6020526040902060030154909150421061221e5760405162461bcd60e51b8152600401610a979061384e565b60ce54600090815260ca60205260409020600401548211156122525760405162461bcd60e51b8152600401610a9790613823565b60ce54600090815260ca60205260409020600101548210156122b15760405162461bcd60e51b815260206004820152601860248201527754686572652061726520746f6f2066657720746f6b656e7360401b6044820152606401610a97565b60d3546040516323b872dd60e01b8152336004820152306024820152604481018390526001600160a01b03909116906323b872dd90606401611d58565b60006122fa8133612c21565b6002609754141561231d5760405162461bcd60e51b8152600401610a97906138e1565b600260975560d35460405163a9059cbb60e01b81526001600160a01b038581166004830152602482018590529091169063a9059cbb90604401602060405180830381600087803b15801561237057600080fd5b505af1158015612384573d6000803e3d6000fd5b505050506040513d601f19601f820116820180604052508101906123a89190613504565b6123eb5760405162461bcd60e51b81526020600482015260146024820152732330b4b632b210313ab9b2103a3930b739b332b960611b6044820152606401610a97565b604080516001600160a01b0385168152602081018490527f9f701d1b8adb1c115d61d876af764d676798c937e70ab565cf228e9672f355cb91015b60405180910390a15050600160975550565b60006124448133612c21565b600260975414156124675760405162461bcd60e51b8152600401610a97906138e1565b60026097556040516001600160a01b0384169083156108fc029084906000818181858888f193505050501580156124a2573d6000803e3d6000fd5b50604080516001600160a01b0385168152602081018490527f884edad9ce6fa2440d8a54cc123490eb96d2768479d49ff9c7366125a94243649101612426565b60ce54600090815260ca60209081526040918290206007018054835181840281018401909452808452606093928301828280156111a65760200282019190600052602060002090815481526020019060010190808311611192575050505050905090565b6001600160a01b038116600090815260cb602090815260409182902080548351818402810184019094528084526060939283018282801561191057602002820191906000526020600020908154815260200190600101908083116118fc5750505050509050919050565b600080805b600084815260cd60205260409020600301548110156126d357600084815260cd6020526040812060038101805460059092019291849081106125f9576125f9613b15565b6000918252602080832090910154835282019290925260400190205460ff161580156126525750600084815260cd6020526040902060030180548290811061264357612643613b15565b90600052602060002001544210155b156126c157600084815260cd602052604090206004018054606491908390811061267e5761267e613b15565b906000526020600020015460cd6000878152602001908152602001600020600101546126aa9190613a67565b6126b49190613a45565b6126be9083613a2d565b91505b806126cb81613ae4565b9150506125b5565b506109bc81604051806040016040528060068152602001656375656e746160d01b815250612e89565b60006127088133612c21565b60ce54600090815260ca60205260409020600301544211156127445760ce54600090815260ca60205260409020600501805460ff191660011790555b61274e8383612ece565b6127ad5760405162461bcd60e51b815260206004820152602a60248201527f57726f6e672074696d65746f52656c65617365206f722070657263656e747320604482015269706172616d657465727360b01b6064820152608401610a97565b60ce54600090815260ca602052604090206005015460ff166128095760405162461bcd60e51b81526020600482015260156024820152742a3434b990383430b9b29034b9b713ba1037bb32b960591b6044820152606401610a97565b60ce54600090815260ca6020526040902060040154156128c85760d25460d15460ce54600090815260ca602052604090819020600490810154915163a9059cbb60e01b81526001600160a01b0393841691810191909152602481019190915291169063a9059cbb90604401602060405180830381600087803b15801561288e57600080fd5b505af11580156128a2573d6000803e3d6000fd5b505050506040513d601f19601f820116820180604052508101906128c69190613504565b505b85421061292f5760405162461bcd60e51b815260206004820152602f60248201527f54686520656e64206f66207468652070686173652073686f756c64206265206760448201526e726561746572207468616e206e6f7760881b6064820152608401610a97565b8785116129925760405162461bcd60e51b815260206004820152602b60248201527f537570706c792073686f756c642062652067726561746572207468616e206d6960448201526a6e696d756d20656e74727960a81b6064820152608401610a97565b8460d05410156129e45760405162461bcd60e51b815260206004820152601960248201527f4e6f7420656e6f75676820737570706c7920746f206d696e74000000000000006044820152606401610a97565b60d25460d1546040516323b872dd60e01b81526001600160a01b039182166004820152306024820152604481018890529116906323b872dd90606401602060405180830381600087803b158015612a3a57600080fd5b505af1158015612a4e573d6000803e3d6000fd5b505050506040513d601f19601f82011682018060405250810190612a729190613504565b612ad65760405162461bcd60e51b815260206004820152602f60248201527f54686520746f6b656e20636f756c64206e6f74206265207472616e736665727260448201526e656420746f2074686520706861736560881b6064820152608401610a97565b60ce8054906000612ae683613ae4565b909155505060408051610120810182528a1515815260208082018b81528284018b8152606084018b8152608085018b8152600060a0870181815260c088018d815260e089018d81526101008a018d905260ce54845260ca8952999092208851815490151560ff1991821617825596516001820155945160028601559251600385015590516004840155905160058301805491151591909416179092559051600682015592518051929384939092612ba4926007850192910190613328565b506101008201518051612bc1916008840191602090910190613328565b5050604080518c15158152602081018c90529081018a905260608101899052608081018890527f2c7a4025fb199a8e49e83cadca2da4279693578a6b956b58f359c7c94b1ab082915060a00160405180910390a150505050505050505050565b612c2b828261188c565b610ccc57612c43816001600160a01b0316601461305c565b612c4e83602061305c565b604051602001612c5f92919061373b565b60408051601f198184030181529082905262461bcd60e51b8252610a9791600401613810565b612c8f828261188c565b610ccc5760008281526065602090815260408083206001600160a01b03851684529091529020805460ff19166001179055612cc73390565b6001600160a01b0316816001600160a01b0316837f2f8788117e7eff1d82e926ec794901d17c78024a50270940304540a733656f0d60405160405180910390a45050565b612d15828261188c565b15610ccc5760008281526065602090815260408083206001600160a01b0385168085529252808320805460ff1916905551339285917ff6391f5c32d9c69d2a47ea670b442974b53935d1edc7fd64eb21e047a839171b9190a45050565b60005b8151811015610ccc5760cd600060cf548152602001908152602001600020600301828281518110612da857612da8613b15565b602002602001015142612dbb9190613a2d565b8154600181018355600092835260209092209091015580612ddb81613ae4565b915050612d75565b600054610100900460ff1680612dfc575060005460ff16155b612e185760405162461bcd60e51b8152600401610a9790613893565b600054610100900460ff16158015612e3a576000805461ffff19166101011790555b612e426131f8565b612e4a6131f8565b612e526131f8565b8015612e64576000805461ff00191690555b50565b610ccc8282612c85565b60006117cd8284613a67565b60006117cd8284613a45565b610ccc8282604051602401612e9f9291906139b7565b60408051601f198184030181529190526020810180516001600160e01b0316630fa3f34560e01b179052613262565b60008151835114612f125760405162461bcd60e51b815260206004820152600e60248201526d4e6f206d6174636820656e74727960901b6044820152606401610a97565b6000805b8451811015613001576000858281518110612f3357612f33613b15565b602002602001015111612f725760405162461bcd60e51b81526020600482015260076024820152664e6f2074696d6560c81b6044820152606401610a97565b6000848281518110612f8657612f86613b15565b602002602001015111612fc85760405162461bcd60e51b815260206004820152600a602482015269139bc81c195c98d95b9d60b21b6044820152606401610a97565b838181518110612fda57612fda613b15565b602002602001015182612fed9190613a2d565b915080612ff981613ae4565b915050612f16565b50806064146130525760405162461bcd60e51b815260206004820152601d60248201527f50657263656e746167657320646f206e6f742061646420746f203130300000006044820152606401610a97565b5060019392505050565b6060600061306b836002613a67565b613076906002613a2d565b67ffffffffffffffff81111561308e5761308e613b2b565b6040519080825280601f01601f1916602001820160405280156130b8576020820181803683370190505b509050600360fc1b816000815181106130d3576130d3613b15565b60200101906001600160f81b031916908160001a905350600f60fb1b8160018151811061310257613102613b15565b60200101906001600160f81b031916908160001a9053506000613126846002613a67565b613131906001613a2d565b90505b60018111156131a9576f181899199a1a9b1b9c1cb0b131b232b360811b85600f166010811061316557613165613b15565b1a60f81b82828151811061317b5761317b613b15565b60200101906001600160f81b031916908160001a90535060049490941c936131a281613acd565b9050613134565b5083156117cd5760405162461bcd60e51b815260206004820181905260248201527f537472696e67733a20686578206c656e67746820696e73756666696369656e746044820152606401610a97565b600054610100900460ff1680613211575060005460ff16155b61322d5760405162461bcd60e51b8152600401610a9790613893565b600054610100900460ff16158015612e52576000805461ffff19166101011790558015612e64576000805461ff001916905550565b80516a636f6e736f6c652e6c6f67602083016000808483855afa5050505050565b8280548282559060005260206000209081019282156132c35760005260206000209182015b828111156132c35782548255916001019190600101906132a8565b506132cf929150613363565b5090565b8280548282559060005260206000209081019282156132c3579160200282015b828111156132c357825182546001600160a01b0319166001600160a01b039091161782556020909201916001909101906132f3565b8280548282559060005260206000209081019282156132c3579160200282015b828111156132c3578251825591602001919060010190613348565b5b808211156132cf5760008155600101613364565b80356001600160a01b038116811461338f57600080fd5b919050565b600082601f8301126133a557600080fd5b813560206133ba6133b583613a09565b6139d8565b80838252828201915082860187848660051b89010111156133da57600080fd5b60005b858110156133f9578135845292840192908401906001016133dd565b5090979650505050505050565b805169ffffffffffffffffffff8116811461338f57600080fd5b60006020828403121561343257600080fd5b6117cd82613378565b6000806040838503121561344e57600080fd5b61345783613378565b946020939093013593505050565b6000602080838503121561347857600080fd5b823567ffffffffffffffff81111561348f57600080fd5b8301601f810185136134a057600080fd5b80356134ae6133b582613a09565b80828252848201915084840188868560051b87010111156134ce57600080fd5b600094505b838510156134f8576134e481613378565b8352600194909401939185019185016134d3565b50979650505050505050565b60006020828403121561351657600080fd5b81516117cd81613b41565b600080600080600080600080610100898b03121561353e57600080fd5b883561354981613b41565b97506020890135965060408901359550606089013594506080890135935060a0890135925060c089013567ffffffffffffffff8082111561358957600080fd5b6135958c838d01613394565b935060e08b01359150808211156135ab57600080fd5b506135b88b828c01613394565b9150509295985092959890939650565b6000602082840312156135da57600080fd5b5035919050565b600080604083850312156135f457600080fd5b8235915061360460208401613378565b90509250929050565b60006020828403121561361f57600080fd5b81356001600160e01b0319811681146117cd57600080fd5b6000806000806080858703121561364d57600080fd5b8435935061365d60208601613378565b925061366b60408601613378565b915061367960608601613378565b905092959194509250565b600080600080600060a0868803121561369c57600080fd5b6136a586613406565b94506020860151935060408601519250606086015191506136c860808701613406565b90509295509295909350565b600081518084526020808501945080840160005b83811015613704578151875295820195908201906001016136e8565b509495945050505050565b60008151808452613727816020860160208601613a9d565b601f01601f19169290920160200192915050565b7f416363657373436f6e74726f6c3a206163636f756e7420000000000000000000815260008351613773816017850160208801613a9d565b7001034b99036b4b9b9b4b733903937b6329607d1b60179184019182015283516137a4816028840160208801613a9d565b01602801949350505050565b6020808252825182820181905260009190848201906040850190845b818110156137f15783516001600160a01b0316835292840192918401916001016137cc565b50909695505050505050565b6020815260006117cd60208301846136d4565b6020815260006117cd602083018461370f565b6020808252601190820152704e6f7420656e6f75676820737570706c7960781b604082015260600190565b60208082526025908201527f54686973207068617365206973206f7665722c207761697420666f7220746865604082015264081b995e1d60da1b606082015260800190565b6020808252602e908201527f496e697469616c697a61626c653a20636f6e747261637420697320616c72656160408201526d191e481a5b9a5d1a585b1a5e995960921b606082015260800190565b6020808252601f908201527f5265656e7472616e637947756172643a207265656e7472616e742063616c6c00604082015260600190565b6020815261392b60208201835115159052565b602082015160408201526040820151606082015260608201516080820152608082015160a0820152600060a083015161396860c084018215159052565b5060c083015160e083015260e083015161012061010081818601526139916101408601846136d4565b90860151858203601f1901838701529092506139ad83826136d4565b9695505050505050565b8281526040602082015260006139d0604083018461370f565b949350505050565b604051601f8201601f1916810167ffffffffffffffff81118282101715613a0157613a01613b2b565b604052919050565b600067ffffffffffffffff821115613a2357613a23613b2b565b5060051b60200190565b60008219821115613a4057613a40613aff565b500190565b600082613a6257634e487b7160e01b600052601260045260246000fd5b500490565b6000816000190483118215151615613a8157613a81613aff565b500290565b600082821015613a9857613a98613aff565b500390565b60005b83811015613ab8578181015183820152602001613aa0565b83811115613ac7576000848401525b50505050565b600081613adc57613adc613aff565b506000190190565b6000600019821415613af857613af8613aff565b5060010190565b634e487b7160e01b600052601160045260246000fd5b634e487b7160e01b600052603260045260246000fd5b634e487b7160e01b600052604160045260246000fd5b8015158114612e6457600080fdfea2646970667358221220c56669db40d78da1d69379c306b44e23071715b73bd2ed3ca9702379a3d3ffc064736f6c63430008070033",
    "devdoc": {
        "author": "crisolita",
        "kind": "dev",
        "methods": {
            "changeEndDate(uint256)": {
                "details": "change the end date's phase"
            },
            "changeTokenAddress(address)": {
                "details": "change the token address"
            },
            "getIDs(address)": {
                "details": "see the tokens lock and id for every user"
            },
            "getLatestPrice()": {
                "details": "get the usd/BNB price"
            },
            "getRoleAdmin(bytes32)": {
                "details": "Returns the admin role that controls `role`. See {grantRole} and {revokeRole}. To change a role's admin, use {_setRoleAdmin}."
            },
            "grantRole(bytes32,address)": {
                "details": "Grants `role` to `account`. If `account` had not been already granted `role`, emits a {RoleGranted} event. Requirements: - the caller must have ``role``'s admin role."
            },
            "hasRole(bytes32,address)": {
                "details": "Returns `true` if `account` has been granted `role`."
            },
            "renounceRole(bytes32,address)": {
                "details": "Revokes `role` from the calling account. Roles are often managed via {grantRole} and {revokeRole}: this function's purpose is to provide a mechanism for accounts to lose their privileges if they are compromised (such as when a trusted device is misplaced). If the calling account had been granted `role`, emits a {RoleRevoked} event. Requirements: - the caller must be `account`."
            },
            "revokeRole(bytes32,address)": {
                "details": "Revokes `role` from `account`. If `account` had been granted `role`, emits a {RoleRevoked} event. Requirements: - the caller must have ``role``'s admin role."
            },
            "showMyToClaimAllAmount(uint256)": {
                "details": "mostrar lo que tiene disponible para claimear"
            },
            "showMyinitAmount(uint256)": {
                "details": "time in lock"
            },
            "supportsInterface(bytes4)": {
                "details": "See {IERC165-supportsInterface}."
            }
        },
        "title": "Sale",
        "version": 1
    },
    "userdoc": {
        "events": {
            "PhaseCreated(bool,uint256,uint256,uint256,uint256)": {
                "notice": "records creation  of phases"
            },
            "Purchase(address,uint256,uint256)": {
                "notice": "records the token transfers made by the contract"
            }
        },
        "kind": "user",
        "methods": {
            "BUSDaddress()": {
                "notice": "address of busd"
            },
            "TOKEN()": {
                "notice": "buy tokens with BUSD"
            },
            "addUsersToVesting(uint256,address)": {
                "notice": "add a list of wallet to vesting"
            },
            "allIDSforUser(address,uint256)": {
                "notice": "record the ids for users"
            },
            "buyTokenWithBUSD(uint256)": {
                "notice": "buy tokens with BUSD"
            },
            "changeBUSDAddress(address)": {
                "notice": "change the Busd address"
            },
            "changeDispatcher(address)": {
                "notice": "change account to transfer the contract balance"
            },
            "createPhase(bool,uint256,uint256,uint256,uint256,uint256,uint256[],uint256[])": {
                "notice": "add a phase to mapping"
            },
            "currentPhase()": {
                "notice": "reference for the mapping of phases, uint of the current phase"
            },
            "dispatcher()": {
                "notice": "wallet to transfer funds of the contract"
            },
            "getcurrentPhase()": {
                "notice": "get ongoing phase or the last phase over"
            },
            "phases(uint256)": {
                "notice": "all phases (next, current and previous)"
            },
            "tokenAddress()": {
                "notice": "address the token that user buys"
            },
            "tokensRemainForSale()": {
                "notice": "reference for the mapping of phases, uint of the total phasecurrent amount of tokens"
            },
            "whitelistArr(uint256)": {
                "notice": "records the changes of the wallet where the tokens are transferred"
            },
            "withdraw(address,uint256)": {
                "notice": "withdraw eth"
            },
            "withdrawBUSD(address,uint256)": {
                "notice": "withdraw busd"
            }
        },
        "notice": "this contract allow create phases for mint token and transfer the funds",
        "version": 1
    },
    "storageLayout": {
        "storage": [
            {
                "astId": 459,
                "contract": "contracts/Sale.sol:Sale",
                "label": "_initialized",
                "offset": 0,
                "slot": "0",
                "type": "t_bool"
            },
            {
                "astId": 462,
                "contract": "contracts/Sale.sol:Sale",
                "label": "_initializing",
                "offset": 1,
                "slot": "0",
                "type": "t_bool"
            },
            {
                "astId": 600,
                "contract": "contracts/Sale.sol:Sale",
                "label": "__gap",
                "offset": 0,
                "slot": "1",
                "type": "t_array(t_uint256)50_storage"
            },
            {
                "astId": 849,
                "contract": "contracts/Sale.sol:Sale",
                "label": "__gap",
                "offset": 0,
                "slot": "51",
                "type": "t_array(t_uint256)50_storage"
            },
            {
                "astId": 94,
                "contract": "contracts/Sale.sol:Sale",
                "label": "_roles",
                "offset": 0,
                "slot": "101",
                "type": "t_mapping(t_bytes32,t_struct(RoleData)89_storage)"
            },
            {
                "astId": 379,
                "contract": "contracts/Sale.sol:Sale",
                "label": "__gap",
                "offset": 0,
                "slot": "102",
                "type": "t_array(t_uint256)49_storage"
            },
            {
                "astId": 513,
                "contract": "contracts/Sale.sol:Sale",
                "label": "_status",
                "offset": 0,
                "slot": "151",
                "type": "t_uint256"
            },
            {
                "astId": 556,
                "contract": "contracts/Sale.sol:Sale",
                "label": "__gap",
                "offset": 0,
                "slot": "152",
                "type": "t_array(t_uint256)49_storage"
            },
            {
                "astId": 3877,
                "contract": "contracts/Sale.sol:Sale",
                "label": "priceFeed",
                "offset": 0,
                "slot": "201",
                "type": "t_contract(AggregatorV3Interface)45"
            },
            {
                "astId": 3921,
                "contract": "contracts/Sale.sol:Sale",
                "label": "phases",
                "offset": 0,
                "slot": "202",
                "type": "t_mapping(t_uint256,t_struct(Phase)3898_storage)"
            },
            {
                "astId": 3927,
                "contract": "contracts/Sale.sol:Sale",
                "label": "allIDSforUser",
                "offset": 0,
                "slot": "203",
                "type": "t_mapping(t_address,t_array(t_uint256)dyn_storage)"
            },
            {
                "astId": 3931,
                "contract": "contracts/Sale.sol:Sale",
                "label": "whitelist",
                "offset": 0,
                "slot": "204",
                "type": "t_mapping(t_address,t_bool)"
            },
            {
                "astId": 3936,
                "contract": "contracts/Sale.sol:Sale",
                "label": "tokenLocksForSale",
                "offset": 0,
                "slot": "205",
                "type": "t_mapping(t_uint256,t_struct(TokenTimelock)3915_storage)"
            },
            {
                "astId": 3939,
                "contract": "contracts/Sale.sol:Sale",
                "label": "currentPhase",
                "offset": 0,
                "slot": "206",
                "type": "t_uint256"
            },
            {
                "astId": 3941,
                "contract": "contracts/Sale.sol:Sale",
                "label": "id",
                "offset": 0,
                "slot": "207",
                "type": "t_uint256"
            },
            {
                "astId": 3944,
                "contract": "contracts/Sale.sol:Sale",
                "label": "tokensRemainForSale",
                "offset": 0,
                "slot": "208",
                "type": "t_uint256"
            },
            {
                "astId": 3947,
                "contract": "contracts/Sale.sol:Sale",
                "label": "dispatcher",
                "offset": 0,
                "slot": "209",
                "type": "t_address"
            },
            {
                "astId": 3950,
                "contract": "contracts/Sale.sol:Sale",
                "label": "tokenAddress",
                "offset": 0,
                "slot": "210",
                "type": "t_address"
            },
            {
                "astId": 3953,
                "contract": "contracts/Sale.sol:Sale",
                "label": "BUSDaddress",
                "offset": 0,
                "slot": "211",
                "type": "t_address"
            },
            {
                "astId": 3957,
                "contract": "contracts/Sale.sol:Sale",
                "label": "whitelistArr",
                "offset": 0,
                "slot": "212",
                "type": "t_array(t_address)dyn_storage"
            },
            {
                "astId": 5105,
                "contract": "contracts/Sale.sol:Sale",
                "label": "TOKEN",
                "offset": 0,
                "slot": "213",
                "type": "t_address"
            }
        ],
        "types": {
            "t_address": {
                "encoding": "inplace",
                "label": "address",
                "numberOfBytes": "20"
            },
            "t_array(t_address)dyn_storage": {
                "base": "t_address",
                "encoding": "dynamic_array",
                "label": "address[]",
                "numberOfBytes": "32"
            },
            "t_array(t_uint256)49_storage": {
                "base": "t_uint256",
                "encoding": "inplace",
                "label": "uint256[49]",
                "numberOfBytes": "1568"
            },
            "t_array(t_uint256)50_storage": {
                "base": "t_uint256",
                "encoding": "inplace",
                "label": "uint256[50]",
                "numberOfBytes": "1600"
            },
            "t_array(t_uint256)dyn_storage": {
                "base": "t_uint256",
                "encoding": "dynamic_array",
                "label": "uint256[]",
                "numberOfBytes": "32"
            },
            "t_bool": {
                "encoding": "inplace",
                "label": "bool",
                "numberOfBytes": "1"
            },
            "t_bytes32": {
                "encoding": "inplace",
                "label": "bytes32",
                "numberOfBytes": "32"
            },
            "t_contract(AggregatorV3Interface)45": {
                "encoding": "inplace",
                "label": "contract AggregatorV3Interface",
                "numberOfBytes": "20"
            },
            "t_mapping(t_address,t_array(t_uint256)dyn_storage)": {
                "encoding": "mapping",
                "key": "t_address",
                "label": "mapping(address => uint256[])",
                "numberOfBytes": "32",
                "value": "t_array(t_uint256)dyn_storage"
            },
            "t_mapping(t_address,t_bool)": {
                "encoding": "mapping",
                "key": "t_address",
                "label": "mapping(address => bool)",
                "numberOfBytes": "32",
                "value": "t_bool"
            },
            "t_mapping(t_bytes32,t_struct(RoleData)89_storage)": {
                "encoding": "mapping",
                "key": "t_bytes32",
                "label": "mapping(bytes32 => struct AccessControlUpgradeable.RoleData)",
                "numberOfBytes": "32",
                "value": "t_struct(RoleData)89_storage"
            },
            "t_mapping(t_uint256,t_bool)": {
                "encoding": "mapping",
                "key": "t_uint256",
                "label": "mapping(uint256 => bool)",
                "numberOfBytes": "32",
                "value": "t_bool"
            },
            "t_mapping(t_uint256,t_struct(Phase)3898_storage)": {
                "encoding": "mapping",
                "key": "t_uint256",
                "label": "mapping(uint256 => struct Sale.Phase)",
                "numberOfBytes": "32",
                "value": "t_struct(Phase)3898_storage"
            },
            "t_mapping(t_uint256,t_struct(TokenTimelock)3915_storage)": {
                "encoding": "mapping",
                "key": "t_uint256",
                "label": "mapping(uint256 => struct Sale.TokenTimelock)",
                "numberOfBytes": "32",
                "value": "t_struct(TokenTimelock)3915_storage"
            },
            "t_struct(Phase)3898_storage": {
                "encoding": "inplace",
                "label": "struct Sale.Phase",
                "members": [
                    {
                        "astId": 3879,
                        "contract": "contracts/Sale.sol:Sale",
                        "label": "isPublic",
                        "offset": 0,
                        "slot": "0",
                        "type": "t_bool"
                    },
                    {
                        "astId": 3881,
                        "contract": "contracts/Sale.sol:Sale",
                        "label": "minimunEntry",
                        "offset": 0,
                        "slot": "1",
                        "type": "t_uint256"
                    },
                    {
                        "astId": 3883,
                        "contract": "contracts/Sale.sol:Sale",
                        "label": "price",
                        "offset": 0,
                        "slot": "2",
                        "type": "t_uint256"
                    },
                    {
                        "astId": 3885,
                        "contract": "contracts/Sale.sol:Sale",
                        "label": "endAt",
                        "offset": 0,
                        "slot": "3",
                        "type": "t_uint256"
                    },
                    {
                        "astId": 3887,
                        "contract": "contracts/Sale.sol:Sale",
                        "label": "supply",
                        "offset": 0,
                        "slot": "4",
                        "type": "t_uint256"
                    },
                    {
                        "astId": 3889,
                        "contract": "contracts/Sale.sol:Sale",
                        "label": "over",
                        "offset": 0,
                        "slot": "5",
                        "type": "t_bool"
                    },
                    {
                        "astId": 3891,
                        "contract": "contracts/Sale.sol:Sale",
                        "label": "timelock",
                        "offset": 0,
                        "slot": "6",
                        "type": "t_uint256"
                    },
                    {
                        "astId": 3894,
                        "contract": "contracts/Sale.sol:Sale",
                        "label": "timesToRelease",
                        "offset": 0,
                        "slot": "7",
                        "type": "t_array(t_uint256)dyn_storage"
                    },
                    {
                        "astId": 3897,
                        "contract": "contracts/Sale.sol:Sale",
                        "label": "percentsToRelease",
                        "offset": 0,
                        "slot": "8",
                        "type": "t_array(t_uint256)dyn_storage"
                    }
                ],
                "numberOfBytes": "288"
            },
            "t_struct(RoleData)89_storage": {
                "encoding": "inplace",
                "label": "struct AccessControlUpgradeable.RoleData",
                "members": [
                    {
                        "astId": 86,
                        "contract": "contracts/Sale.sol:Sale",
                        "label": "members",
                        "offset": 0,
                        "slot": "0",
                        "type": "t_mapping(t_address,t_bool)"
                    },
                    {
                        "astId": 88,
                        "contract": "contracts/Sale.sol:Sale",
                        "label": "adminRole",
                        "offset": 0,
                        "slot": "1",
                        "type": "t_bytes32"
                    }
                ],
                "numberOfBytes": "64"
            },
            "t_struct(TokenTimelock)3915_storage": {
                "encoding": "inplace",
                "label": "struct Sale.TokenTimelock",
                "members": [
                    {
                        "astId": 3900,
                        "contract": "contracts/Sale.sol:Sale",
                        "label": "owner",
                        "offset": 0,
                        "slot": "0",
                        "type": "t_address"
                    },
                    {
                        "astId": 3902,
                        "contract": "contracts/Sale.sol:Sale",
                        "label": "initAmount",
                        "offset": 0,
                        "slot": "1",
                        "type": "t_uint256"
                    },
                    {
                        "astId": 3904,
                        "contract": "contracts/Sale.sol:Sale",
                        "label": "remainAmount",
                        "offset": 0,
                        "slot": "2",
                        "type": "t_uint256"
                    },
                    {
                        "astId": 3907,
                        "contract": "contracts/Sale.sol:Sale",
                        "label": "timesToRelease",
                        "offset": 0,
                        "slot": "3",
                        "type": "t_array(t_uint256)dyn_storage"
                    },
                    {
                        "astId": 3910,
                        "contract": "contracts/Sale.sol:Sale",
                        "label": "percentsToRelease",
                        "offset": 0,
                        "slot": "4",
                        "type": "t_array(t_uint256)dyn_storage"
                    },
                    {
                        "astId": 3914,
                        "contract": "contracts/Sale.sol:Sale",
                        "label": "released",
                        "offset": 0,
                        "slot": "5",
                        "type": "t_mapping(t_uint256,t_bool)"
                    }
                ],
                "numberOfBytes": "192"
            },
            "t_uint256": {
                "encoding": "inplace",
                "label": "uint256",
                "numberOfBytes": "32"
            }
        }
    }
}