{
    "address": "0x5e1Bd7E215585dFf6C9D02908497E129B179c826",
    "abi": [
        {
            "anonymous": false,
            "inputs": [
                {
                    "indexed": true,
                    "internalType": "bytes32",
                    "name": "role",
                    "type": "bytes32"
                },
                {
                    "indexed": true,
                    "internalType": "bytes32",
                    "name": "previousAdminRole",
                    "type": "bytes32"
                },
                {
                    "indexed": true,
                    "internalType": "bytes32",
                    "name": "newAdminRole",
                    "type": "bytes32"
                }
            ],
            "name": "RoleAdminChanged",
            "type": "event"
        },
        {
            "anonymous": false,
            "inputs": [
                {
                    "indexed": true,
                    "internalType": "bytes32",
                    "name": "role",
                    "type": "bytes32"
                },
                {
                    "indexed": true,
                    "internalType": "address",
                    "name": "account",
                    "type": "address"
                },
                {
                    "indexed": true,
                    "internalType": "address",
                    "name": "sender",
                    "type": "address"
                }
            ],
            "name": "RoleGranted",
            "type": "event"
        },
        {
            "anonymous": false,
            "inputs": [
                {
                    "indexed": true,
                    "internalType": "bytes32",
                    "name": "role",
                    "type": "bytes32"
                },
                {
                    "indexed": true,
                    "internalType": "address",
                    "name": "account",
                    "type": "address"
                },
                {
                    "indexed": true,
                    "internalType": "address",
                    "name": "sender",
                    "type": "address"
                }
            ],
            "name": "RoleRevoked",
            "type": "event"
        },
        {
            "anonymous": false,
            "inputs": [
                {
                    "indexed": false,
                    "internalType": "uint256",
                    "name": "APR",
                    "type": "uint256"
                },
                {
                    "indexed": false,
                    "internalType": "uint256",
                    "name": "maxCupo",
                    "type": "uint256"
                },
                {
                    "indexed": false,
                    "internalType": "uint256",
                    "name": "endTime",
                    "type": "uint256"
                },
                {
                    "indexed": false,
                    "internalType": "uint256",
                    "name": "timeLockRewards",
                    "type": "uint256"
                },
                {
                    "indexed": false,
                    "internalType": "uint256",
                    "name": "timeLockExit",
                    "type": "uint256"
                },
                {
                    "indexed": false,
                    "internalType": "uint256",
                    "name": "id",
                    "type": "uint256"
                },
                {
                    "indexed": false,
                    "internalType": "string",
                    "name": "data",
                    "type": "string"
                }
            ],
            "name": "StakeCreated",
            "type": "event"
        },
        {
            "anonymous": false,
            "inputs": [
                {
                    "indexed": false,
                    "internalType": "uint256",
                    "name": "APR",
                    "type": "uint256"
                },
                {
                    "indexed": false,
                    "internalType": "uint256",
                    "name": "maxCupo",
                    "type": "uint256"
                },
                {
                    "indexed": false,
                    "internalType": "uint256",
                    "name": "endTime",
                    "type": "uint256"
                },
                {
                    "indexed": false,
                    "internalType": "uint256",
                    "name": "timeLockRewards",
                    "type": "uint256"
                },
                {
                    "indexed": false,
                    "internalType": "uint256",
                    "name": "timeLockExit",
                    "type": "uint256"
                },
                {
                    "indexed": false,
                    "internalType": "uint256",
                    "name": "id",
                    "type": "uint256"
                },
                {
                    "indexed": false,
                    "internalType": "string",
                    "name": "data",
                    "type": "string"
                }
            ],
            "name": "StakeUpdated",
            "type": "event"
        },
        {
            "anonymous": false,
            "inputs": [
                {
                    "indexed": false,
                    "internalType": "address",
                    "name": "user",
                    "type": "address"
                },
                {
                    "indexed": false,
                    "internalType": "uint256",
                    "name": "stakeId",
                    "type": "uint256"
                },
                {
                    "indexed": false,
                    "internalType": "uint256",
                    "name": "balanceClaimed",
                    "type": "uint256"
                },
                {
                    "indexed": false,
                    "internalType": "uint256",
                    "name": "lastTimeClaimed",
                    "type": "uint256"
                }
            ],
            "name": "UserClaimedReward",
            "type": "event"
        },
        {
            "anonymous": false,
            "inputs": [
                {
                    "indexed": false,
                    "internalType": "address",
                    "name": "user",
                    "type": "address"
                },
                {
                    "indexed": false,
                    "internalType": "uint256",
                    "name": "stakeId",
                    "type": "uint256"
                }
            ],
            "name": "UserExit",
            "type": "event"
        },
        {
            "anonymous": false,
            "inputs": [
                {
                    "indexed": false,
                    "internalType": "uint256",
                    "name": "balance",
                    "type": "uint256"
                },
                {
                    "indexed": false,
                    "internalType": "uint256",
                    "name": "stakeId",
                    "type": "uint256"
                },
                {
                    "indexed": false,
                    "internalType": "address",
                    "name": "user",
                    "type": "address"
                }
            ],
            "name": "UserStaked",
            "type": "event"
        },
        {
            "inputs": [],
            "name": "DEFAULT_ADMIN_ROLE",
            "outputs": [
                {
                    "internalType": "bytes32",
                    "name": "",
                    "type": "bytes32"
                }
            ],
            "stateMutability": "view",
            "type": "function"
        },
        {
            "inputs": [
                {
                    "internalType": "uint256",
                    "name": "_APR",
                    "type": "uint256"
                },
                {
                    "internalType": "uint256",
                    "name": "_maxCupo",
                    "type": "uint256"
                },
                {
                    "internalType": "uint256",
                    "name": "_endTime",
                    "type": "uint256"
                },
                {
                    "internalType": "uint256",
                    "name": "_timeLockRewards",
                    "type": "uint256"
                },
                {
                    "internalType": "uint256",
                    "name": "_timeLockExit",
                    "type": "uint256"
                },
                {
                    "internalType": "string",
                    "name": "_data",
                    "type": "string"
                }
            ],
            "name": "createStake",
            "outputs": [],
            "stateMutability": "nonpayable",
            "type": "function"
        },
        {
            "inputs": [],
            "name": "currentIdStake",
            "outputs": [
                {
                    "internalType": "uint256",
                    "name": "",
                    "type": "uint256"
                }
            ],
            "stateMutability": "view",
            "type": "function"
        },
        {
            "inputs": [
                {
                    "internalType": "address",
                    "name": "",
                    "type": "address"
                }
            ],
            "name": "earned",
            "outputs": [
                {
                    "internalType": "uint256",
                    "name": "",
                    "type": "uint256"
                }
            ],
            "stateMutability": "view",
            "type": "function"
        },
        {
            "inputs": [
                {
                    "internalType": "uint256",
                    "name": "_stakeId",
                    "type": "uint256"
                }
            ],
            "name": "exit",
            "outputs": [],
            "stateMutability": "nonpayable",
            "type": "function"
        },
        {
            "inputs": [
                {
                    "internalType": "uint256",
                    "name": "_balance",
                    "type": "uint256"
                }
            ],
            "name": "fundThis",
            "outputs": [],
            "stateMutability": "nonpayable",
            "type": "function"
        },
        {
            "inputs": [
                {
                    "internalType": "uint256",
                    "name": "_stakeId",
                    "type": "uint256"
                }
            ],
            "name": "getRewards",
            "outputs": [],
            "stateMutability": "nonpayable",
            "type": "function"
        },
        {
            "inputs": [
                {
                    "internalType": "bytes32",
                    "name": "role",
                    "type": "bytes32"
                }
            ],
            "name": "getRoleAdmin",
            "outputs": [
                {
                    "internalType": "bytes32",
                    "name": "",
                    "type": "bytes32"
                }
            ],
            "stateMutability": "view",
            "type": "function"
        },
        {
            "inputs": [
                {
                    "internalType": "bytes32",
                    "name": "role",
                    "type": "bytes32"
                },
                {
                    "internalType": "address",
                    "name": "account",
                    "type": "address"
                }
            ],
            "name": "grantRole",
            "outputs": [],
            "stateMutability": "nonpayable",
            "type": "function"
        },
        {
            "inputs": [
                {
                    "internalType": "bytes32",
                    "name": "role",
                    "type": "bytes32"
                },
                {
                    "internalType": "address",
                    "name": "account",
                    "type": "address"
                }
            ],
            "name": "hasRole",
            "outputs": [
                {
                    "internalType": "bool",
                    "name": "",
                    "type": "bool"
                }
            ],
            "stateMutability": "view",
            "type": "function"
        },
        {
            "inputs": [
                {
                    "internalType": "uint256",
                    "name": "_stakeId",
                    "type": "uint256"
                },
                {
                    "internalType": "address",
                    "name": "_user",
                    "type": "address"
                }
            ],
            "name": "infoStakeByUser",
            "outputs": [
                {
                    "components": [
                        {
                            "internalType": "uint256",
                            "name": "stakeId",
                            "type": "uint256"
                        },
                        {
                            "internalType": "uint256",
                            "name": "balance",
                            "type": "uint256"
                        },
                        {
                            "internalType": "uint256",
                            "name": "rewardPerSecond",
                            "type": "uint256"
                        },
                        {
                            "internalType": "uint256",
                            "name": "lastTimeClaimed",
                            "type": "uint256"
                        },
                        {
                            "internalType": "uint256",
                            "name": "pendingReward",
                            "type": "uint256"
                        },
                        {
                            "internalType": "uint256",
                            "name": "initTime",
                            "type": "uint256"
                        }
                    ],
                    "internalType": "struct StakeXperiend.UserStakeInfo",
                    "name": "",
                    "type": "tuple"
                }
            ],
            "stateMutability": "view",
            "type": "function"
        },
        {
            "inputs": [
                {
                    "internalType": "address",
                    "name": "_tokenAddress",
                    "type": "address"
                }
            ],
            "name": "initialize",
            "outputs": [],
            "stateMutability": "nonpayable",
            "type": "function"
        },
        {
            "inputs": [
                {
                    "internalType": "address",
                    "name": "_user",
                    "type": "address"
                },
                {
                    "internalType": "uint256",
                    "name": "_stakeId",
                    "type": "uint256"
                }
            ],
            "name": "isUserInStake",
            "outputs": [
                {
                    "internalType": "bool",
                    "name": "itIs",
                    "type": "bool"
                }
            ],
            "stateMutability": "view",
            "type": "function"
        },
        {
            "inputs": [
                {
                    "internalType": "bytes32",
                    "name": "role",
                    "type": "bytes32"
                },
                {
                    "internalType": "address",
                    "name": "account",
                    "type": "address"
                }
            ],
            "name": "renounceRole",
            "outputs": [],
            "stateMutability": "nonpayable",
            "type": "function"
        },
        {
            "inputs": [
                {
                    "internalType": "bytes32",
                    "name": "role",
                    "type": "bytes32"
                },
                {
                    "internalType": "address",
                    "name": "account",
                    "type": "address"
                }
            ],
            "name": "revokeRole",
            "outputs": [],
            "stateMutability": "nonpayable",
            "type": "function"
        },
        {
            "inputs": [
                {
                    "internalType": "uint256",
                    "name": "",
                    "type": "uint256"
                }
            ],
            "name": "stakes",
            "outputs": [
                {
                    "internalType": "uint256",
                    "name": "APR",
                    "type": "uint256"
                },
                {
                    "internalType": "uint256",
                    "name": "maxCupo",
                    "type": "uint256"
                },
                {
                    "internalType": "uint256",
                    "name": "endTime",
                    "type": "uint256"
                },
                {
                    "internalType": "uint256",
                    "name": "timeLockRewards",
                    "type": "uint256"
                },
                {
                    "internalType": "uint256",
                    "name": "timeLockExit",
                    "type": "uint256"
                },
                {
                    "internalType": "uint256",
                    "name": "currentCupo",
                    "type": "uint256"
                },
                {
                    "internalType": "string",
                    "name": "data",
                    "type": "string"
                }
            ],
            "stateMutability": "view",
            "type": "function"
        },
        {
            "inputs": [
                {
                    "internalType": "bytes4",
                    "name": "interfaceId",
                    "type": "bytes4"
                }
            ],
            "name": "supportsInterface",
            "outputs": [
                {
                    "internalType": "bool",
                    "name": "",
                    "type": "bool"
                }
            ],
            "stateMutability": "view",
            "type": "function"
        },
        {
            "inputs": [],
            "name": "tokenAddress",
            "outputs": [
                {
                    "internalType": "address",
                    "name": "",
                    "type": "address"
                }
            ],
            "stateMutability": "view",
            "type": "function"
        },
        {
            "inputs": [
                {
                    "internalType": "uint256",
                    "name": "id",
                    "type": "uint256"
                },
                {
                    "internalType": "uint256",
                    "name": "_APR",
                    "type": "uint256"
                },
                {
                    "internalType": "uint256",
                    "name": "_maxCupo",
                    "type": "uint256"
                },
                {
                    "internalType": "uint256",
                    "name": "_endTime",
                    "type": "uint256"
                },
                {
                    "internalType": "uint256",
                    "name": "_timeLockRewards",
                    "type": "uint256"
                },
                {
                    "internalType": "uint256",
                    "name": "_timeLockExit",
                    "type": "uint256"
                },
                {
                    "internalType": "string",
                    "name": "_data",
                    "type": "string"
                }
            ],
            "name": "updateStake",
            "outputs": [],
            "stateMutability": "nonpayable",
            "type": "function"
        },
        {
            "inputs": [
                {
                    "internalType": "uint256",
                    "name": "_balance",
                    "type": "uint256"
                },
                {
                    "internalType": "uint256",
                    "name": "_stakeId",
                    "type": "uint256"
                }
            ],
            "name": "userStake",
            "outputs": [],
            "stateMutability": "nonpayable",
            "type": "function"
        },
        {
            "inputs": [
                {
                    "internalType": "uint256",
                    "name": "_amount",
                    "type": "uint256"
                },
                {
                    "internalType": "address",
                    "name": "_recipient",
                    "type": "address"
                }
            ],
            "name": "withdrawTokens",
            "outputs": [],
            "stateMutability": "nonpayable",
            "type": "function"
        }
    ],
    "transactionHash": "0x785061fdd9cef2cc9d5f853d7497f8b7369a535ab25617aee7b0cab6952b8b54",
    "args": [],
    "solcInputHash": "4a4d4adc14f7c149df65bb400a48614c",
    "bytecode": "0x608060405234801561001057600080fd5b50612804806100206000396000f3fe608060405234801561001057600080fd5b50600436106101365760003560e01c806391d14854116100b8578063c040e1b11161007c578063c040e1b11461029d578063c0d8012c146102b0578063c4d66de8146102c3578063d547741f146102d6578063d5a44f86146102e9578063e96ee30d1461030f57600080fd5b806391d148541461023b57806393c0f8d81461024e5780639d76ea58146102575780639f1af66014610282578063a217fddf1461029557600080fd5b80632f2ff15d116100ff5780632f2ff15d146101dc57806336568abe146101ef578063398d92bb1461020257806345346fbf146102155780637f8661a11461022857600080fd5b80628cc2621461013b57806301ffc9a71461016e5780631fd4019414610191578063248a9ca3146101a45780632c2664a3146101c7575b600080fd5b61015b6101493660046122f5565b60cd6020526000908152604090205481565b6040519081526020015b60405180910390f35b61018161017c3660046123a1565b61036e565b6040519015158152602001610165565b61018161019f366004612310565b6103a5565b61015b6101b236600461235c565b60009081526065602052604090206001015490565b6101da6101d53660046123cb565b610456565b005b6101da6101ea366004612375565b610a12565b6101da6101fd366004612375565b610a3d565b6101da610210366004612375565b610abb565b6101da610223366004612459565b610b68565b6101da61023636600461235c565b610d53565b610181610249366004612375565b611151565b61015b60c95481565b60ca5461026a906001600160a01b031681565b6040516001600160a01b039091168152602001610165565b6101da61029036600461235c565b61117c565b61015b600081565b6101da6102ab3660046123ed565b611206565b6101da6102be36600461235c565b61138a565b6101da6102d13660046122f5565b6117dc565b6101da6102e4366004612375565b611876565b6102fc6102f736600461235c565b61189c565b604051610165979695949392919061263b565b61032261031d366004612375565b611966565b6040516101659190600060c082019050825182526020830151602083015260408301516040830152606083015160608301526080830151608083015260a083015160a083015292915050565b60006001600160e01b03198216637965db0b60e01b148061039f57506301ffc9a760e01b6001600160e01b03198316145b92915050565b6001600160a01b038216600090815260cc60205260408120541561044d5760005b6001600160a01b038416600090815260cc6020526040902054811015610447576001600160a01b038416600090815260cc60205260409020805484919083908110610413576104136127a2565b906000526020600020906006020160000154141561043557600191505061039f565b8061043f81612771565b9150506103c6565b5061039f565b50600092915050565b600081815260cb602052604090206002015442106104b05760405162461bcd60e51b81526020600482015260126024820152712a3434b99039ba30b5b29034b99037bb32b960711b60448201526064015b60405180910390fd5b600081815260cb602052604090206005015482111561050a5760405162461bcd60e51b815260206004820152601660248201527554686973207374616b6520697320636f6d706c65746560501b60448201526064016104a7565b60ca546040516323b872dd60e01b8152336004820152306024820152604481018490526001600160a01b03909116906323b872dd90606401602060405180830381600087803b15801561055c57600080fd5b505af1158015610570573d6000803e3d6000fd5b505050506040513d601f19601f82011682018060405250810190610594919061233a565b6105e05760405162461bcd60e51b815260206004820152601960248201527f54686520746f6b656e207472616e73666572206661696c65640000000000000060448201526064016104a7565b6105ea3382611a37565b60006105f63383611c8d565b33600090815260cc60205260409020549091501580159061061c575061061c33836103a5565b156108e15733600090815260cc6020526040902080546106b9919083908110610647576106476127a2565b9060005260206000209060060201600401546106b38560cc6000336001600160a01b03166001600160a01b031681526020019081526020016000208581548110610693576106936127a2565b906000526020600020906006020160010154611d3390919063ffffffff16565b90611d33565b33600090815260cc602052604090208054839081106106da576106da6127a2565b90600052602060002090600602016001018190555061075360cc6000336001600160a01b03166001600160a01b031681526020019081526020016000208281548110610728576107286127a2565b600091825260208083206004600690930201919091015433835260cd90915260409091205490611d33565b33600090815260cd602090815260408083209390935560cc9052908120805483908110610782576107826127a2565b9060005260206000209060060201600401819055504260cc6000336001600160a01b03166001600160a01b0316815260200190815260200160002082815481106107ce576107ce6127a2565b9060005260206000209060060201600501819055504260cc6000336001600160a01b03166001600160a01b03168152602001908152602001600020828154811061081a5761081a6127a2565b9060005260206000209060060201600301819055506108a660646108a06301e133806108a060cc6000336001600160a01b03166001600160a01b031681526020019081526020016000208681548110610875576108756127a2565b600091825260208083206001600690930201919091015489835260cb90915260409091205490611d46565b90611d52565b33600090815260cc602052604090208054839081106108c7576108c76127a2565b9060005260206000209060060201600201819055506109ce565b60006040518060c0016040528084815260200185815260200161093060646108a06301e133806108a08a60cb60008c815260200190815260200160002060000154611d4690919063ffffffff16565b81524260208083018290526000604080850182905260609485019390935233815260cc8252828120805460018181018355918352838320875160069092020190815586840151918101919091558584015160028201559385015160038501556080850151600485015560a085015160059485015587815260cb909152908120909101805492935086929091906109c79084906126d8565b9091555050505b6040805184815260208101849052338183015290517f43fbe12dd02167b21a736aaeb5d6938d3f9344e284312d744b18825066af25769181900360600190a1505050565b600082815260656020526040902060010154610a2e8133611d5e565b610a388383611dc2565b505050565b6001600160a01b0381163314610aad5760405162461bcd60e51b815260206004820152602f60248201527f416363657373436f6e74726f6c3a2063616e206f6e6c792072656e6f756e636560448201526e103937b632b9903337b91039b2b63360891b60648201526084016104a7565b610ab78282611e48565b5050565b610ac6600033611151565b610ae25760405162461bcd60e51b81526004016104a790612618565b60ca5460405163a9059cbb60e01b81526001600160a01b038381166004830152602482018590529091169063a9059cbb90604401602060405180830381600087803b158015610b3057600080fd5b505af1158015610b44573d6000803e3d6000fd5b505050506040513d601f19601f82011682018060405250810190610a38919061233a565b610b73600033611151565b610b8f5760405162461bcd60e51b81526004016104a790612618565b60c954871115610bda5760405162461bcd60e51b8152602060048201526016602482015275151a1a5cc81a5908191bd95cc81b9bdd08195e1a5cdd60521b60448201526064016104a7565b428411610bf95760405162461bcd60e51b81526004016104a790612584565b6064861115610c4a5760405162461bcd60e51b815260206004820152601c60248201527f4150522073686f756c64206265206c6f776572207468616e203130300000000060448201526064016104a7565b60006040518060e0016040528088815260200187815260200186815260200185815260200184815260200160cb60008b81526020019081526020016000206005015481526020018381525090508060cb60008a8152602001908152602001600020600082015181600001556020820151816001015560408201518160020155606082015181600301556080820151816004015560a0820151816005015560c0820151816006019080519060200190610d039291906121b3565b509050507e39aa556db91b6a39659aba0d167565ae54527d95b4af14689d0ba7f0e3f50687878787878d88604051610d41979695949392919061263b565b60405180910390a15050505050505050565b3381610d5f82826103a5565b610dab5760405162461bcd60e51b815260206004820152601e60248201527f546869732075736572206973206e6f7420696e2074686973207374616b65000060448201526064016104a7565b60026097541415610dfe5760405162461bcd60e51b815260206004820152601f60248201527f5265656e7472616e637947756172643a207265656e7472616e742063616c6c0060448201526064016104a7565b6002609755600083815260cb60205260409020600401544211610e635760405162461bcd60e51b815260206004820152601a60248201527f4e6f2074696d6520746f2067657420726577617264732079657400000000000060448201526064016104a7565b610e6d3384611a37565b6000610e793385611c8d565b33600090815260cc602052604081208054929350909183908110610e9f57610e9f6127a2565b90600052602060002090600602016001015411610efe5760405162461bcd60e51b815260206004820152601760248201527f446f206e6f74206861766520616e792062616c616e636500000000000000000060448201526064016104a7565b60ca5433600081815260cc6020526040902080546001600160a01b039093169263a9059cbb9291610f819186908110610f3957610f396127a2565b90600052602060002090600602016004015460cc6000336001600160a01b03166001600160a01b031681526020019081526020016000208681548110610693576106936127a2565b6040516001600160e01b031960e085901b1681526001600160a01b0390921660048301526024820152604401602060405180830381600087803b158015610fc757600080fd5b505af1158015610fdb573d6000803e3d6000fd5b505050506040513d601f19601f82011682018060405250810190610fff919061233a565b61103d5760405162461bcd60e51b815260206004820152600f60248201526e151c985b9cd9995c8819985a5b1959608a1b60448201526064016104a7565b33600090815260cc602052604090208054611063919083908110610728576107286127a2565b33600081815260cd6020908152604080832094909455835160c081018552828152808201839052808501839052606081018390526080810183905260a0810183905292825260cc9052919091208054829190849081106110c5576110c56127a2565b600091825260209182902083516006909202019081558282015160018201556040808401516002830155606084015160038301556080840151600483015560a09093015160059091015581513381529081018790527fa3db022dacb292d28ebe9bf36b5b47436b2ab30cc976b0ea81c46162543e18fd910160405180910390a150506001609755505050565b60009182526065602090815260408084206001600160a01b0393909316845291905290205460ff1690565b60ca546040516323b872dd60e01b8152336004820152306024820152604481018390526001600160a01b03909116906323b872dd90606401602060405180830381600087803b1580156111ce57600080fd5b505af11580156111e2573d6000803e3d6000fd5b505050506040513d601f19601f82011682018060405250810190610ab7919061233a565b611211600033611151565b61122d5760405162461bcd60e51b81526004016104a790612618565b42841161124c5760405162461bcd60e51b81526004016104a790612584565b606486111561129d5760405162461bcd60e51b815260206004820152601c60248201527f4150522073686f756c64206265206c6f776572207468616e203130300000000060448201526064016104a7565b60c980549060006112ad83612771565b90915550506040805160e0810182528781526020808201888152828401888152606084018881526080850188815260a086018c815260c0870189815260c954600090815260cb88529890982087518155945160018601559251600285015590516003840155516004830155516005820155925180519293849390926113399260068501929101906121b3565b505060c9546040517f4d990ebd7df6d847c5a544ad5e3d63e44ef9cf6d973bba87a69aafad31d76d689250611379918a918a918a918a918a918a9061263b565b60405180910390a150505050505050565b338161139682826103a5565b6113e25760405162461bcd60e51b815260206004820152601e60248201527f546869732075736572206973206e6f7420696e2074686973207374616b65000060448201526064016104a7565b600260975414156114355760405162461bcd60e51b815260206004820152601f60248201527f5265656e7472616e637947756172643a207265656e7472616e742063616c6c0060448201526064016104a7565b6002609755600083815260cb6020526040902060030154421161149a5760405162461bcd60e51b815260206004820152601a60248201527f4e6f2074696d6520746f2067657420726577617264732079657400000000000060448201526064016104a7565b6114a43384611a37565b60006114b03385611c8d565b33600090815260cc6020526040812080549293509091839081106114d6576114d66127a2565b9060005260206000209060060201600401541161152b5760405162461bcd60e51b8152602060048201526013602482015272446f206e6f742068617665207265776172647360681b60448201526064016104a7565b60ca5433600081815260cc6020526040902080546001600160a01b039093169263a9059cbb92919085908110611563576115636127a2565b9060005260206000209060060201600401546040518363ffffffff1660e01b81526004016115a69291906001600160a01b03929092168252602082015260400190565b602060405180830381600087803b1580156115c057600080fd5b505af11580156115d4573d6000803e3d6000fd5b505050506040513d601f19601f820116820180604052508101906115f8919061233a565b61163a5760405162461bcd60e51b8152602060048201526013602482015272151a19481d1c985b9cd9995c8819985a5b1959606a1b60448201526064016104a7565b33600090815260cc602052604090208054611660919083908110610728576107286127a2565b33600090815260cd602090815260408083209390935560cc905290812080548390811061168f5761168f6127a2565b9060005260206000209060060201600401819055504260cc6000336001600160a01b03166001600160a01b0316815260200190815260200160002082815481106116db576116db6127a2565b9060005260206000209060060201600301819055507f26b4bcc53166c500aa657315ab67058db693ccf4ac2bf978b4f4d519a59bf2e0338560cc6000336001600160a01b03166001600160a01b031681526020019081526020016000208481548110611749576117496127a2565b90600052602060002090600602016004015460cc6000336001600160a01b03166001600160a01b031681526020019081526020016000208581548110611791576117916127a2565b600091825260209182902060036006909202010154604080516001600160a01b03909616865291850193909352830152606082015260800160405180910390a1505060016097555050565b600054610100900460ff16806117f5575060005460ff16155b6118115760405162461bcd60e51b81526004016104a7906125ca565b600054610100900460ff16158015611833576000805461ffff19166101011790555b61183b611eaf565b611846600033611f33565b60ca80546001600160a01b0319166001600160a01b0384161790558015610ab7576000805461ff00191690555050565b6000828152606560205260409020600101546118928133611d5e565b610a388383611e48565b60cb6020528060005260406000206000915090508060000154908060010154908060020154908060030154908060040154908060050154908060060180546118e390612736565b80601f016020809104026020016040519081016040528092919081815260200182805461190f90612736565b801561195c5780601f106119315761010080835404028352916020019161195c565b820191906000526020600020905b81548152906001019060200180831161193f57829003601f168201915b5050505050905087565b61199f6040518060c001604052806000815260200160008152602001600081526020016000815260200160008152602001600081525090565b60006119ab8385611c8d565b6001600160a01b038416600090815260cc60205260409020805491925090829081106119d9576119d96127a2565b90600052602060002090600602016040518060c0016040529081600082015481526020016001820154815260200160028201548152602001600382015481526020016004820154815260200160058201548152505091505092915050565b611a4182826103a5565b15610ab7576000611a528383611c8d565b600083815260cb6020526040902060020154909150421015611b73576001600160a01b038316600090815260cc602052604090208054611b0f919083908110611a9d57611a9d6127a2565b906000526020600020906006020160020154611b0960cc6000876001600160a01b03166001600160a01b031681526020019081526020016000208481548110611ae857611ae86127a2565b90600052602060002090600602016003015442611f3d90919063ffffffff16565b90611d46565b6001600160a01b038416600090815260cc60205260409020805483908110611b3957611b396127a2565b906000526020600020906006020160040181905550610a3860405180604001604052806004815260200163486f6c6160e01b815250611f49565b611b98604051806040016040528060048152602001634368616f60e01b815250611f49565b6001600160a01b038316600090815260cc602052604090208054611c49919083908110611bc757611bc76127a2565b906000526020600020906006020160020154611b0960cc6000876001600160a01b03166001600160a01b031681526020019081526020016000208481548110611c1257611c126127a2565b90600052602060002090600602016003015460cb600087815260200190815260200160002060020154611f3d90919063ffffffff16565b6001600160a01b038416600090815260cc60205260409020805483908110611c7357611c736127a2565b906000526020600020906006020160040181905550505050565b6001600160a01b038216600090815260cc60205260408120541561039f5760005b6001600160a01b038416600090815260cc6020526040902054811015611d2c576001600160a01b038416600090815260cc60205260409020805484919083908110611cfb57611cfb6127a2565b9060005260206000209060060201600001541415611d1a57905061039f565b80611d2481612771565b915050611cae565b5092915050565b6000611d3f828461267f565b9392505050565b6000611d3f82846126b9565b6000611d3f8284612697565b611d688282611151565b610ab757611d80816001600160a01b03166014611f8c565b611d8b836020611f8c565b604051602001611d9c9291906124fc565b60408051601f198184030181529082905262461bcd60e51b82526104a791600401612571565b611dcc8282611151565b610ab75760008281526065602090815260408083206001600160a01b03851684529091529020805460ff19166001179055611e043390565b6001600160a01b0316816001600160a01b0316837f2f8788117e7eff1d82e926ec794901d17c78024a50270940304540a733656f0d60405160405180910390a45050565b611e528282611151565b15610ab75760008281526065602090815260408083206001600160a01b0385168085529252808320805460ff1916905551339285917ff6391f5c32d9c69d2a47ea670b442974b53935d1edc7fd64eb21e047a839171b9190a45050565b600054610100900460ff1680611ec8575060005460ff16155b611ee45760405162461bcd60e51b81526004016104a7906125ca565b600054610100900460ff16158015611f06576000805461ffff19166101011790555b611f0e612128565b611f16612128565b611f1e612128565b8015611f30576000805461ff00191690555b50565b610ab78282611dc2565b6000611d3f82846126d8565b611f3081604051602401611f5d9190612571565b60408051601f198184030181529190526020810180516001600160e01b031663104c13eb60e21b179052612192565b60606000611f9b8360026126b9565b611fa690600261267f565b67ffffffffffffffff811115611fbe57611fbe6127b8565b6040519080825280601f01601f191660200182016040528015611fe8576020820181803683370190505b509050600360fc1b81600081518110612003576120036127a2565b60200101906001600160f81b031916908160001a905350600f60fb1b81600181518110612032576120326127a2565b60200101906001600160f81b031916908160001a90535060006120568460026126b9565b61206190600161267f565b90505b60018111156120d9576f181899199a1a9b1b9c1cb0b131b232b360811b85600f1660108110612095576120956127a2565b1a60f81b8282815181106120ab576120ab6127a2565b60200101906001600160f81b031916908160001a90535060049490941c936120d28161271f565b9050612064565b508315611d3f5760405162461bcd60e51b815260206004820181905260248201527f537472696e67733a20686578206c656e67746820696e73756666696369656e7460448201526064016104a7565b600054610100900460ff1680612141575060005460ff16155b61215d5760405162461bcd60e51b81526004016104a7906125ca565b600054610100900460ff16158015611f1e576000805461ffff19166101011790558015611f30576000805461ff001916905550565b80516a636f6e736f6c652e6c6f67602083016000808483855afa5050505050565b8280546121bf90612736565b90600052602060002090601f0160209004810192826121e15760008555612227565b82601f106121fa57805160ff1916838001178555612227565b82800160010185558215612227579182015b8281111561222757825182559160200191906001019061220c565b50612233929150612237565b5090565b5b808211156122335760008155600101612238565b80356001600160a01b038116811461226357600080fd5b919050565b600082601f83011261227957600080fd5b813567ffffffffffffffff80821115612294576122946127b8565b604051601f8301601f19908116603f011681019082821181831017156122bc576122bc6127b8565b816040528381528660208588010111156122d557600080fd5b836020870160208301376000602085830101528094505050505092915050565b60006020828403121561230757600080fd5b611d3f8261224c565b6000806040838503121561232357600080fd5b61232c8361224c565b946020939093013593505050565b60006020828403121561234c57600080fd5b81518015158114611d3f57600080fd5b60006020828403121561236e57600080fd5b5035919050565b6000806040838503121561238857600080fd5b823591506123986020840161224c565b90509250929050565b6000602082840312156123b357600080fd5b81356001600160e01b031981168114611d3f57600080fd5b600080604083850312156123de57600080fd5b50508035926020909101359150565b60008060008060008060c0878903121561240657600080fd5b863595506020870135945060408701359350606087013592506080870135915060a087013567ffffffffffffffff81111561244057600080fd5b61244c89828a01612268565b9150509295509295509295565b600080600080600080600060e0888a03121561247457600080fd5b873596506020880135955060408801359450606088013593506080880135925060a0880135915060c088013567ffffffffffffffff8111156124b557600080fd5b6124c18a828b01612268565b91505092959891949750929550565b600081518084526124e88160208601602086016126ef565b601f01601f19169290920160200192915050565b7f416363657373436f6e74726f6c3a206163636f756e74200000000000000000008152600083516125348160178501602088016126ef565b7001034b99036b4b9b9b4b733903937b6329607d1b60179184019182015283516125658160288401602088016126ef565b01602801949350505050565b602081526000611d3f60208301846124d0565b60208082526026908201527f54686520656e6454696d652073686f756c642062652067726561746572207468604082015265616e206e6f7760d01b606082015260800190565b6020808252602e908201527f496e697469616c697a61626c653a20636f6e747261637420697320616c72656160408201526d191e481a5b9a5d1a585b1a5e995960921b606082015260800190565b6020808252600990820152682737ba1030b236b4b760b91b604082015260600190565b8781528660208201528560408201528460608201528360808201528260a082015260e060c0820152600061267260e08301846124d0565b9998505050505050505050565b600082198211156126925761269261278c565b500190565b6000826126b457634e487b7160e01b600052601260045260246000fd5b500490565b60008160001904831182151516156126d3576126d361278c565b500290565b6000828210156126ea576126ea61278c565b500390565b60005b8381101561270a5781810151838201526020016126f2565b83811115612719576000848401525b50505050565b60008161272e5761272e61278c565b506000190190565b600181811c9082168061274a57607f821691505b6020821081141561276b57634e487b7160e01b600052602260045260246000fd5b50919050565b60006000198214156127855761278561278c565b5060010190565b634e487b7160e01b600052601160045260246000fd5b634e487b7160e01b600052603260045260246000fd5b634e487b7160e01b600052604160045260246000fdfea2646970667358221220666f48cb3bcb80c031b4bd5411a9d4f3f847ef02c6843a60e59a77e8d80d609264736f6c63430008070033",
    "devdoc": {
        "author": "crisolita",
        "kind": "dev",
        "methods": {
            "getRoleAdmin(bytes32)": {
                "details": "Returns the admin role that controls `role`. See {grantRole} and {revokeRole}. To change a role's admin, use {_setRoleAdmin}."
            },
            "grantRole(bytes32,address)": {
                "details": "Grants `role` to `account`. If `account` had not been already granted `role`, emits a {RoleGranted} event. Requirements: - the caller must have ``role``'s admin role."
            },
            "hasRole(bytes32,address)": {
                "details": "Returns `true` if `account` has been granted `role`."
            },
            "renounceRole(bytes32,address)": {
                "details": "Revokes `role` from the calling account. Roles are often managed via {grantRole} and {revokeRole}: this function's purpose is to provide a mechanism for accounts to lose their privileges if they are compromised (such as when a trusted device is misplaced). If the calling account had been granted `role`, emits a {RoleRevoked} event. Requirements: - the caller must be `account`."
            },
            "revokeRole(bytes32,address)": {
                "details": "Revokes `role` from `account`. If `account` had been granted `role`, emits a {RoleRevoked} event. Requirements: - the caller must have ``role``'s admin role."
            },
            "supportsInterface(bytes4)": {
                "details": "See {IERC165-supportsInterface}."
            }
        },
        "title": "StakeXperiend",
        "version": 1
    },
    "userdoc": {
        "kind": "user",
        "methods": {},
        "notice": "this contract allow create stake with fixed APR",
        "version": 1
    },
    "storageLayout": {
        "storage": [
            {
                "astId": 459,
                "contract": "contracts/StakeXperiend.sol:StakeXperiend",
                "label": "_initialized",
                "offset": 0,
                "slot": "0",
                "type": "t_bool"
            },
            {
                "astId": 462,
                "contract": "contracts/StakeXperiend.sol:StakeXperiend",
                "label": "_initializing",
                "offset": 1,
                "slot": "0",
                "type": "t_bool"
            },
            {
                "astId": 600,
                "contract": "contracts/StakeXperiend.sol:StakeXperiend",
                "label": "__gap",
                "offset": 0,
                "slot": "1",
                "type": "t_array(t_uint256)50_storage"
            },
            {
                "astId": 849,
                "contract": "contracts/StakeXperiend.sol:StakeXperiend",
                "label": "__gap",
                "offset": 0,
                "slot": "51",
                "type": "t_array(t_uint256)50_storage"
            },
            {
                "astId": 94,
                "contract": "contracts/StakeXperiend.sol:StakeXperiend",
                "label": "_roles",
                "offset": 0,
                "slot": "101",
                "type": "t_mapping(t_bytes32,t_struct(RoleData)89_storage)"
            },
            {
                "astId": 379,
                "contract": "contracts/StakeXperiend.sol:StakeXperiend",
                "label": "__gap",
                "offset": 0,
                "slot": "102",
                "type": "t_array(t_uint256)49_storage"
            },
            {
                "astId": 513,
                "contract": "contracts/StakeXperiend.sol:StakeXperiend",
                "label": "_status",
                "offset": 0,
                "slot": "151",
                "type": "t_uint256"
            },
            {
                "astId": 556,
                "contract": "contracts/StakeXperiend.sol:StakeXperiend",
                "label": "__gap",
                "offset": 0,
                "slot": "152",
                "type": "t_array(t_uint256)49_storage"
            },
            {
                "astId": 5597,
                "contract": "contracts/StakeXperiend.sol:StakeXperiend",
                "label": "currentIdStake",
                "offset": 0,
                "slot": "201",
                "type": "t_uint256"
            },
            {
                "astId": 5599,
                "contract": "contracts/StakeXperiend.sol:StakeXperiend",
                "label": "tokenAddress",
                "offset": 0,
                "slot": "202",
                "type": "t_address"
            },
            {
                "astId": 5632,
                "contract": "contracts/StakeXperiend.sol:StakeXperiend",
                "label": "stakes",
                "offset": 0,
                "slot": "203",
                "type": "t_mapping(t_uint256,t_struct(StakeInfo)5614_storage)"
            },
            {
                "astId": 5638,
                "contract": "contracts/StakeXperiend.sol:StakeXperiend",
                "label": "userStakes",
                "offset": 0,
                "slot": "204",
                "type": "t_mapping(t_address,t_array(t_struct(UserStakeInfo)5627_storage)dyn_storage)"
            },
            {
                "astId": 5642,
                "contract": "contracts/StakeXperiend.sol:StakeXperiend",
                "label": "earned",
                "offset": 0,
                "slot": "205",
                "type": "t_mapping(t_address,t_uint256)"
            }
        ],
        "types": {
            "t_address": {
                "encoding": "inplace",
                "label": "address",
                "numberOfBytes": "20"
            },
            "t_array(t_struct(UserStakeInfo)5627_storage)dyn_storage": {
                "base": "t_struct(UserStakeInfo)5627_storage",
                "encoding": "dynamic_array",
                "label": "struct StakeXperiend.UserStakeInfo[]",
                "numberOfBytes": "32"
            },
            "t_array(t_uint256)49_storage": {
                "base": "t_uint256",
                "encoding": "inplace",
                "label": "uint256[49]",
                "numberOfBytes": "1568"
            },
            "t_array(t_uint256)50_storage": {
                "base": "t_uint256",
                "encoding": "inplace",
                "label": "uint256[50]",
                "numberOfBytes": "1600"
            },
            "t_bool": {
                "encoding": "inplace",
                "label": "bool",
                "numberOfBytes": "1"
            },
            "t_bytes32": {
                "encoding": "inplace",
                "label": "bytes32",
                "numberOfBytes": "32"
            },
            "t_mapping(t_address,t_array(t_struct(UserStakeInfo)5627_storage)dyn_storage)": {
                "encoding": "mapping",
                "key": "t_address",
                "label": "mapping(address => struct StakeXperiend.UserStakeInfo[])",
                "numberOfBytes": "32",
                "value": "t_array(t_struct(UserStakeInfo)5627_storage)dyn_storage"
            },
            "t_mapping(t_address,t_bool)": {
                "encoding": "mapping",
                "key": "t_address",
                "label": "mapping(address => bool)",
                "numberOfBytes": "32",
                "value": "t_bool"
            },
            "t_mapping(t_address,t_uint256)": {
                "encoding": "mapping",
                "key": "t_address",
                "label": "mapping(address => uint256)",
                "numberOfBytes": "32",
                "value": "t_uint256"
            },
            "t_mapping(t_bytes32,t_struct(RoleData)89_storage)": {
                "encoding": "mapping",
                "key": "t_bytes32",
                "label": "mapping(bytes32 => struct AccessControlUpgradeable.RoleData)",
                "numberOfBytes": "32",
                "value": "t_struct(RoleData)89_storage"
            },
            "t_mapping(t_uint256,t_struct(StakeInfo)5614_storage)": {
                "encoding": "mapping",
                "key": "t_uint256",
                "label": "mapping(uint256 => struct StakeXperiend.StakeInfo)",
                "numberOfBytes": "32",
                "value": "t_struct(StakeInfo)5614_storage"
            },
            "t_string_storage": {
                "encoding": "bytes",
                "label": "string",
                "numberOfBytes": "32"
            },
            "t_struct(RoleData)89_storage": {
                "encoding": "inplace",
                "label": "struct AccessControlUpgradeable.RoleData",
                "members": [
                    {
                        "astId": 86,
                        "contract": "contracts/StakeXperiend.sol:StakeXperiend",
                        "label": "members",
                        "offset": 0,
                        "slot": "0",
                        "type": "t_mapping(t_address,t_bool)"
                    },
                    {
                        "astId": 88,
                        "contract": "contracts/StakeXperiend.sol:StakeXperiend",
                        "label": "adminRole",
                        "offset": 0,
                        "slot": "1",
                        "type": "t_bytes32"
                    }
                ],
                "numberOfBytes": "64"
            },
            "t_struct(StakeInfo)5614_storage": {
                "encoding": "inplace",
                "label": "struct StakeXperiend.StakeInfo",
                "members": [
                    {
                        "astId": 5601,
                        "contract": "contracts/StakeXperiend.sol:StakeXperiend",
                        "label": "APR",
                        "offset": 0,
                        "slot": "0",
                        "type": "t_uint256"
                    },
                    {
                        "astId": 5603,
                        "contract": "contracts/StakeXperiend.sol:StakeXperiend",
                        "label": "maxCupo",
                        "offset": 0,
                        "slot": "1",
                        "type": "t_uint256"
                    },
                    {
                        "astId": 5605,
                        "contract": "contracts/StakeXperiend.sol:StakeXperiend",
                        "label": "endTime",
                        "offset": 0,
                        "slot": "2",
                        "type": "t_uint256"
                    },
                    {
                        "astId": 5607,
                        "contract": "contracts/StakeXperiend.sol:StakeXperiend",
                        "label": "timeLockRewards",
                        "offset": 0,
                        "slot": "3",
                        "type": "t_uint256"
                    },
                    {
                        "astId": 5609,
                        "contract": "contracts/StakeXperiend.sol:StakeXperiend",
                        "label": "timeLockExit",
                        "offset": 0,
                        "slot": "4",
                        "type": "t_uint256"
                    },
                    {
                        "astId": 5611,
                        "contract": "contracts/StakeXperiend.sol:StakeXperiend",
                        "label": "currentCupo",
                        "offset": 0,
                        "slot": "5",
                        "type": "t_uint256"
                    },
                    {
                        "astId": 5613,
                        "contract": "contracts/StakeXperiend.sol:StakeXperiend",
                        "label": "data",
                        "offset": 0,
                        "slot": "6",
                        "type": "t_string_storage"
                    }
                ],
                "numberOfBytes": "224"
            },
            "t_struct(UserStakeInfo)5627_storage": {
                "encoding": "inplace",
                "label": "struct StakeXperiend.UserStakeInfo",
                "members": [
                    {
                        "astId": 5616,
                        "contract": "contracts/StakeXperiend.sol:StakeXperiend",
                        "label": "stakeId",
                        "offset": 0,
                        "slot": "0",
                        "type": "t_uint256"
                    },
                    {
                        "astId": 5618,
                        "contract": "contracts/StakeXperiend.sol:StakeXperiend",
                        "label": "balance",
                        "offset": 0,
                        "slot": "1",
                        "type": "t_uint256"
                    },
                    {
                        "astId": 5620,
                        "contract": "contracts/StakeXperiend.sol:StakeXperiend",
                        "label": "rewardPerSecond",
                        "offset": 0,
                        "slot": "2",
                        "type": "t_uint256"
                    },
                    {
                        "astId": 5622,
                        "contract": "contracts/StakeXperiend.sol:StakeXperiend",
                        "label": "lastTimeClaimed",
                        "offset": 0,
                        "slot": "3",
                        "type": "t_uint256"
                    },
                    {
                        "astId": 5624,
                        "contract": "contracts/StakeXperiend.sol:StakeXperiend",
                        "label": "pendingReward",
                        "offset": 0,
                        "slot": "4",
                        "type": "t_uint256"
                    },
                    {
                        "astId": 5626,
                        "contract": "contracts/StakeXperiend.sol:StakeXperiend",
                        "label": "initTime",
                        "offset": 0,
                        "slot": "5",
                        "type": "t_uint256"
                    }
                ],
                "numberOfBytes": "192"
            },
            "t_uint256": {
                "encoding": "inplace",
                "label": "uint256",
                "numberOfBytes": "32"
            }
        }
    }
}