{
    "address": "0x817f42236d7a293E5A6C5f33827076a9Ab113Ea5",
    "abi": [
        {
            "anonymous": false,
            "inputs": [
                {
                    "indexed": true,
                    "internalType": "address",
                    "name": "owner",
                    "type": "address"
                },
                {
                    "indexed": true,
                    "internalType": "address",
                    "name": "approved",
                    "type": "address"
                },
                {
                    "indexed": true,
                    "internalType": "uint256",
                    "name": "tokenId",
                    "type": "uint256"
                }
            ],
            "name": "Approval",
            "type": "event"
        },
        {
            "anonymous": false,
            "inputs": [
                {
                    "indexed": true,
                    "internalType": "address",
                    "name": "owner",
                    "type": "address"
                },
                {
                    "indexed": true,
                    "internalType": "address",
                    "name": "operator",
                    "type": "address"
                },
                {
                    "indexed": false,
                    "internalType": "bool",
                    "name": "approved",
                    "type": "bool"
                }
            ],
            "name": "ApprovalForAll",
            "type": "event"
        },
        {
            "anonymous": false,
            "inputs": [
                {
                    "indexed": false,
                    "internalType": "address",
                    "name": "creator",
                    "type": "address"
                },
                {
                    "indexed": false,
                    "internalType": "uint256",
                    "name": "id",
                    "type": "uint256"
                },
                {
                    "indexed": false,
                    "internalType": "string",
                    "name": "ipfsHash",
                    "type": "string"
                }
            ],
            "name": "NewNFT",
            "type": "event"
        },
        {
            "anonymous": false,
            "inputs": [
                {
                    "indexed": true,
                    "internalType": "bytes32",
                    "name": "role",
                    "type": "bytes32"
                },
                {
                    "indexed": true,
                    "internalType": "bytes32",
                    "name": "previousAdminRole",
                    "type": "bytes32"
                },
                {
                    "indexed": true,
                    "internalType": "bytes32",
                    "name": "newAdminRole",
                    "type": "bytes32"
                }
            ],
            "name": "RoleAdminChanged",
            "type": "event"
        },
        {
            "anonymous": false,
            "inputs": [
                {
                    "indexed": true,
                    "internalType": "bytes32",
                    "name": "role",
                    "type": "bytes32"
                },
                {
                    "indexed": true,
                    "internalType": "address",
                    "name": "account",
                    "type": "address"
                },
                {
                    "indexed": true,
                    "internalType": "address",
                    "name": "sender",
                    "type": "address"
                }
            ],
            "name": "RoleGranted",
            "type": "event"
        },
        {
            "anonymous": false,
            "inputs": [
                {
                    "indexed": true,
                    "internalType": "bytes32",
                    "name": "role",
                    "type": "bytes32"
                },
                {
                    "indexed": true,
                    "internalType": "address",
                    "name": "account",
                    "type": "address"
                },
                {
                    "indexed": true,
                    "internalType": "address",
                    "name": "sender",
                    "type": "address"
                }
            ],
            "name": "RoleRevoked",
            "type": "event"
        },
        {
            "anonymous": false,
            "inputs": [
                {
                    "indexed": true,
                    "internalType": "address",
                    "name": "from",
                    "type": "address"
                },
                {
                    "indexed": true,
                    "internalType": "address",
                    "name": "to",
                    "type": "address"
                },
                {
                    "indexed": true,
                    "internalType": "uint256",
                    "name": "tokenId",
                    "type": "uint256"
                }
            ],
            "name": "Transfer",
            "type": "event"
        },
        {
            "inputs": [],
            "name": "DEFAULT_ADMIN_ROLE",
            "outputs": [
                {
                    "internalType": "bytes32",
                    "name": "",
                    "type": "bytes32"
                }
            ],
            "stateMutability": "view",
            "type": "function"
        },
        {
            "inputs": [],
            "name": "RECEIVER_ROLE",
            "outputs": [
                {
                    "internalType": "bytes32",
                    "name": "",
                    "type": "bytes32"
                }
            ],
            "stateMutability": "view",
            "type": "function"
        },
        {
            "inputs": [],
            "name": "allow",
            "outputs": [
                {
                    "internalType": "bool",
                    "name": "",
                    "type": "bool"
                }
            ],
            "stateMutability": "view",
            "type": "function"
        },
        {
            "inputs": [
                {
                    "internalType": "address",
                    "name": "to",
                    "type": "address"
                },
                {
                    "internalType": "uint256",
                    "name": "tokenId",
                    "type": "uint256"
                }
            ],
            "name": "approve",
            "outputs": [],
            "stateMutability": "nonpayable",
            "type": "function"
        },
        {
            "inputs": [
                {
                    "internalType": "address",
                    "name": "owner",
                    "type": "address"
                }
            ],
            "name": "balanceOf",
            "outputs": [
                {
                    "internalType": "uint256",
                    "name": "",
                    "type": "uint256"
                }
            ],
            "stateMutability": "view",
            "type": "function"
        },
        {
            "inputs": [
                {
                    "internalType": "uint256",
                    "name": "tokenId",
                    "type": "uint256"
                }
            ],
            "name": "burn",
            "outputs": [],
            "stateMutability": "nonpayable",
            "type": "function"
        },
        {
            "inputs": [
                {
                    "internalType": "uint256",
                    "name": "nftId",
                    "type": "uint256"
                }
            ],
            "name": "cancelClaim",
            "outputs": [
                {
                    "internalType": "bool",
                    "name": "",
                    "type": "bool"
                }
            ],
            "stateMutability": "nonpayable",
            "type": "function"
        },
        {
            "inputs": [
                {
                    "internalType": "uint256",
                    "name": "nftId",
                    "type": "uint256"
                }
            ],
            "name": "cancelExchange",
            "outputs": [
                {
                    "internalType": "bool",
                    "name": "",
                    "type": "bool"
                }
            ],
            "stateMutability": "nonpayable",
            "type": "function"
        },
        {
            "inputs": [
                {
                    "internalType": "uint256",
                    "name": "nftId",
                    "type": "uint256"
                }
            ],
            "name": "cancelReinvest",
            "outputs": [
                {
                    "internalType": "bool",
                    "name": "",
                    "type": "bool"
                }
            ],
            "stateMutability": "nonpayable",
            "type": "function"
        },
        {
            "inputs": [],
            "name": "changeAllow",
            "outputs": [
                {
                    "internalType": "bool",
                    "name": "",
                    "type": "bool"
                }
            ],
            "stateMutability": "nonpayable",
            "type": "function"
        },
        {
            "inputs": [
                {
                    "internalType": "uint256",
                    "name": "nftId",
                    "type": "uint256"
                }
            ],
            "name": "claim",
            "outputs": [
                {
                    "internalType": "bool",
                    "name": "",
                    "type": "bool"
                }
            ],
            "stateMutability": "nonpayable",
            "type": "function"
        },
        {
            "inputs": [
                {
                    "internalType": "address",
                    "name": "",
                    "type": "address"
                },
                {
                    "internalType": "uint256",
                    "name": "",
                    "type": "uint256"
                }
            ],
            "name": "claimsByAddress",
            "outputs": [
                {
                    "internalType": "uint256",
                    "name": "",
                    "type": "uint256"
                }
            ],
            "stateMutability": "view",
            "type": "function"
        },
        {
            "inputs": [
                {
                    "internalType": "uint256",
                    "name": "",
                    "type": "uint256"
                }
            ],
            "name": "claimsByNFT",
            "outputs": [
                {
                    "internalType": "address",
                    "name": "claimer",
                    "type": "address"
                },
                {
                    "internalType": "uint256",
                    "name": "nftId",
                    "type": "uint256"
                },
                {
                    "internalType": "uint256",
                    "name": "created",
                    "type": "uint256"
                },
                {
                    "internalType": "uint256",
                    "name": "finished",
                    "type": "uint256"
                },
                {
                    "internalType": "enum XperiendNFT.Status",
                    "name": "status",
                    "type": "uint8"
                }
            ],
            "stateMutability": "view",
            "type": "function"
        },
        {
            "inputs": [
                {
                    "internalType": "uint256",
                    "name": "nftId",
                    "type": "uint256"
                }
            ],
            "name": "endClaim",
            "outputs": [
                {
                    "internalType": "bool",
                    "name": "",
                    "type": "bool"
                }
            ],
            "stateMutability": "nonpayable",
            "type": "function"
        },
        {
            "inputs": [
                {
                    "internalType": "uint256",
                    "name": "nftId",
                    "type": "uint256"
                },
                {
                    "internalType": "address",
                    "name": "_newOwnwer",
                    "type": "address"
                }
            ],
            "name": "endExchange",
            "outputs": [
                {
                    "internalType": "bool",
                    "name": "",
                    "type": "bool"
                }
            ],
            "stateMutability": "nonpayable",
            "type": "function"
        },
        {
            "inputs": [
                {
                    "internalType": "uint256",
                    "name": "nftId",
                    "type": "uint256"
                },
                {
                    "internalType": "uint256",
                    "name": "projectId",
                    "type": "uint256"
                },
                {
                    "internalType": "string",
                    "name": "tokenHash",
                    "type": "string"
                },
                {
                    "internalType": "string",
                    "name": "documentId",
                    "type": "string"
                }
            ],
            "name": "endReinvest",
            "outputs": [
                {
                    "internalType": "bool",
                    "name": "",
                    "type": "bool"
                }
            ],
            "stateMutability": "nonpayable",
            "type": "function"
        },
        {
            "inputs": [
                {
                    "internalType": "uint256",
                    "name": "",
                    "type": "uint256"
                }
            ],
            "name": "exchangeByNFT",
            "outputs": [
                {
                    "internalType": "address",
                    "name": "giver",
                    "type": "address"
                },
                {
                    "internalType": "address",
                    "name": "receiver",
                    "type": "address"
                },
                {
                    "internalType": "uint256",
                    "name": "projectId",
                    "type": "uint256"
                },
                {
                    "internalType": "uint256",
                    "name": "nftId",
                    "type": "uint256"
                },
                {
                    "internalType": "uint256",
                    "name": "created",
                    "type": "uint256"
                },
                {
                    "internalType": "uint256",
                    "name": "finished",
                    "type": "uint256"
                },
                {
                    "internalType": "enum XperiendNFT.Status",
                    "name": "status",
                    "type": "uint8"
                }
            ],
            "stateMutability": "view",
            "type": "function"
        },
        {
            "inputs": [
                {
                    "internalType": "uint256",
                    "name": "projectId",
                    "type": "uint256"
                },
                {
                    "internalType": "uint256",
                    "name": "nftId",
                    "type": "uint256"
                }
            ],
            "name": "exchangeNFT",
            "outputs": [
                {
                    "internalType": "bool",
                    "name": "",
                    "type": "bool"
                }
            ],
            "stateMutability": "nonpayable",
            "type": "function"
        },
        {
            "inputs": [
                {
                    "internalType": "address",
                    "name": "",
                    "type": "address"
                },
                {
                    "internalType": "uint256",
                    "name": "",
                    "type": "uint256"
                }
            ],
            "name": "exchangesByAddress",
            "outputs": [
                {
                    "internalType": "uint256",
                    "name": "",
                    "type": "uint256"
                }
            ],
            "stateMutability": "view",
            "type": "function"
        },
        {
            "inputs": [
                {
                    "internalType": "uint256",
                    "name": "",
                    "type": "uint256"
                },
                {
                    "internalType": "uint256",
                    "name": "",
                    "type": "uint256"
                }
            ],
            "name": "exchangesByProject",
            "outputs": [
                {
                    "internalType": "uint256",
                    "name": "",
                    "type": "uint256"
                }
            ],
            "stateMutability": "view",
            "type": "function"
        },
        {
            "inputs": [
                {
                    "internalType": "uint256",
                    "name": "tokenId",
                    "type": "uint256"
                }
            ],
            "name": "getApproved",
            "outputs": [
                {
                    "internalType": "address",
                    "name": "",
                    "type": "address"
                }
            ],
            "stateMutability": "view",
            "type": "function"
        },
        {
            "inputs": [
                {
                    "internalType": "uint256",
                    "name": "nftId",
                    "type": "uint256"
                }
            ],
            "name": "getClaim",
            "outputs": [
                {
                    "components": [
                        {
                            "internalType": "address",
                            "name": "claimer",
                            "type": "address"
                        },
                        {
                            "internalType": "uint256",
                            "name": "nftId",
                            "type": "uint256"
                        },
                        {
                            "internalType": "uint256",
                            "name": "created",
                            "type": "uint256"
                        },
                        {
                            "internalType": "uint256",
                            "name": "finished",
                            "type": "uint256"
                        },
                        {
                            "internalType": "enum XperiendNFT.Status",
                            "name": "status",
                            "type": "uint8"
                        }
                    ],
                    "internalType": "struct XperiendNFT.Claims",
                    "name": "",
                    "type": "tuple"
                }
            ],
            "stateMutability": "view",
            "type": "function"
        },
        {
            "inputs": [
                {
                    "internalType": "address",
                    "name": "_user",
                    "type": "address"
                }
            ],
            "name": "getClaimByUser",
            "outputs": [
                {
                    "internalType": "uint256[]",
                    "name": "",
                    "type": "uint256[]"
                }
            ],
            "stateMutability": "view",
            "type": "function"
        },
        {
            "inputs": [
                {
                    "internalType": "uint256",
                    "name": "nftId",
                    "type": "uint256"
                }
            ],
            "name": "getExchange",
            "outputs": [
                {
                    "components": [
                        {
                            "internalType": "address",
                            "name": "giver",
                            "type": "address"
                        },
                        {
                            "internalType": "address",
                            "name": "receiver",
                            "type": "address"
                        },
                        {
                            "internalType": "uint256",
                            "name": "projectId",
                            "type": "uint256"
                        },
                        {
                            "internalType": "uint256",
                            "name": "nftId",
                            "type": "uint256"
                        },
                        {
                            "internalType": "uint256",
                            "name": "created",
                            "type": "uint256"
                        },
                        {
                            "internalType": "uint256",
                            "name": "finished",
                            "type": "uint256"
                        },
                        {
                            "internalType": "enum XperiendNFT.Status",
                            "name": "status",
                            "type": "uint8"
                        }
                    ],
                    "internalType": "struct XperiendNFT.Exchanges",
                    "name": "",
                    "type": "tuple"
                }
            ],
            "stateMutability": "view",
            "type": "function"
        },
        {
            "inputs": [
                {
                    "internalType": "uint256",
                    "name": "projectId",
                    "type": "uint256"
                }
            ],
            "name": "getExchangeByProject",
            "outputs": [
                {
                    "internalType": "uint256[]",
                    "name": "",
                    "type": "uint256[]"
                }
            ],
            "stateMutability": "view",
            "type": "function"
        },
        {
            "inputs": [
                {
                    "internalType": "address",
                    "name": "_user",
                    "type": "address"
                }
            ],
            "name": "getExchangeByUser",
            "outputs": [
                {
                    "internalType": "uint256[]",
                    "name": "",
                    "type": "uint256[]"
                }
            ],
            "stateMutability": "view",
            "type": "function"
        },
        {
            "inputs": [
                {
                    "internalType": "uint256",
                    "name": "nftId",
                    "type": "uint256"
                }
            ],
            "name": "getReinvest",
            "outputs": [
                {
                    "components": [
                        {
                            "internalType": "address",
                            "name": "reinvester",
                            "type": "address"
                        },
                        {
                            "internalType": "uint256",
                            "name": "nftId",
                            "type": "uint256"
                        },
                        {
                            "internalType": "uint256",
                            "name": "created",
                            "type": "uint256"
                        },
                        {
                            "internalType": "uint256",
                            "name": "finished",
                            "type": "uint256"
                        },
                        {
                            "internalType": "enum XperiendNFT.Status",
                            "name": "status",
                            "type": "uint8"
                        }
                    ],
                    "internalType": "struct XperiendNFT.Reinvest",
                    "name": "",
                    "type": "tuple"
                }
            ],
            "stateMutability": "view",
            "type": "function"
        },
        {
            "inputs": [
                {
                    "internalType": "address",
                    "name": "_user",
                    "type": "address"
                }
            ],
            "name": "getReinvestByUser",
            "outputs": [
                {
                    "internalType": "uint256[]",
                    "name": "",
                    "type": "uint256[]"
                }
            ],
            "stateMutability": "view",
            "type": "function"
        },
        {
            "inputs": [
                {
                    "internalType": "bytes32",
                    "name": "role",
                    "type": "bytes32"
                }
            ],
            "name": "getRoleAdmin",
            "outputs": [
                {
                    "internalType": "bytes32",
                    "name": "",
                    "type": "bytes32"
                }
            ],
            "stateMutability": "view",
            "type": "function"
        },
        {
            "inputs": [
                {
                    "internalType": "uint256",
                    "name": "tokenId",
                    "type": "uint256"
                }
            ],
            "name": "getTokenData",
            "outputs": [
                {
                    "components": [
                        {
                            "internalType": "address",
                            "name": "creator",
                            "type": "address"
                        },
                        {
                            "internalType": "string",
                            "name": "ipfsHash",
                            "type": "string"
                        },
                        {
                            "internalType": "uint256",
                            "name": "projectId",
                            "type": "uint256"
                        },
                        {
                            "internalType": "string",
                            "name": "documentId",
                            "type": "string"
                        }
                    ],
                    "internalType": "struct XperiendNFT.tokenData",
                    "name": "",
                    "type": "tuple"
                }
            ],
            "stateMutability": "view",
            "type": "function"
        },
        {
            "inputs": [
                {
                    "internalType": "bytes32",
                    "name": "role",
                    "type": "bytes32"
                },
                {
                    "internalType": "address",
                    "name": "account",
                    "type": "address"
                }
            ],
            "name": "grantRole",
            "outputs": [],
            "stateMutability": "nonpayable",
            "type": "function"
        },
        {
            "inputs": [
                {
                    "internalType": "bytes32",
                    "name": "role",
                    "type": "bytes32"
                },
                {
                    "internalType": "address",
                    "name": "account",
                    "type": "address"
                }
            ],
            "name": "hasRole",
            "outputs": [
                {
                    "internalType": "bool",
                    "name": "",
                    "type": "bool"
                }
            ],
            "stateMutability": "view",
            "type": "function"
        },
        {
            "inputs": [],
            "name": "id",
            "outputs": [
                {
                    "internalType": "uint256",
                    "name": "",
                    "type": "uint256"
                }
            ],
            "stateMutability": "view",
            "type": "function"
        },
        {
            "inputs": [],
            "name": "initialize",
            "outputs": [],
            "stateMutability": "nonpayable",
            "type": "function"
        },
        {
            "inputs": [
                {
                    "internalType": "address",
                    "name": "owner",
                    "type": "address"
                },
                {
                    "internalType": "address",
                    "name": "operator",
                    "type": "address"
                }
            ],
            "name": "isApprovedForAll",
            "outputs": [
                {
                    "internalType": "bool",
                    "name": "",
                    "type": "bool"
                }
            ],
            "stateMutability": "view",
            "type": "function"
        },
        {
            "inputs": [],
            "name": "name",
            "outputs": [
                {
                    "internalType": "string",
                    "name": "",
                    "type": "string"
                }
            ],
            "stateMutability": "view",
            "type": "function"
        },
        {
            "inputs": [
                {
                    "internalType": "address",
                    "name": "",
                    "type": "address"
                },
                {
                    "internalType": "address",
                    "name": "",
                    "type": "address"
                },
                {
                    "internalType": "uint256",
                    "name": "",
                    "type": "uint256"
                },
                {
                    "internalType": "bytes",
                    "name": "",
                    "type": "bytes"
                }
            ],
            "name": "onERC721Received",
            "outputs": [
                {
                    "internalType": "bytes4",
                    "name": "",
                    "type": "bytes4"
                }
            ],
            "stateMutability": "pure",
            "type": "function"
        },
        {
            "inputs": [
                {
                    "internalType": "uint256",
                    "name": "tokenId",
                    "type": "uint256"
                }
            ],
            "name": "ownerOf",
            "outputs": [
                {
                    "internalType": "address",
                    "name": "",
                    "type": "address"
                }
            ],
            "stateMutability": "view",
            "type": "function"
        },
        {
            "inputs": [
                {
                    "internalType": "uint256",
                    "name": "nftId",
                    "type": "uint256"
                }
            ],
            "name": "reinvest",
            "outputs": [
                {
                    "internalType": "bool",
                    "name": "",
                    "type": "bool"
                }
            ],
            "stateMutability": "nonpayable",
            "type": "function"
        },
        {
            "inputs": [
                {
                    "internalType": "address",
                    "name": "",
                    "type": "address"
                },
                {
                    "internalType": "uint256",
                    "name": "",
                    "type": "uint256"
                }
            ],
            "name": "reinvestByAddress",
            "outputs": [
                {
                    "internalType": "uint256",
                    "name": "",
                    "type": "uint256"
                }
            ],
            "stateMutability": "view",
            "type": "function"
        },
        {
            "inputs": [
                {
                    "internalType": "uint256",
                    "name": "",
                    "type": "uint256"
                }
            ],
            "name": "reinvestByNFT",
            "outputs": [
                {
                    "internalType": "address",
                    "name": "reinvester",
                    "type": "address"
                },
                {
                    "internalType": "uint256",
                    "name": "nftId",
                    "type": "uint256"
                },
                {
                    "internalType": "uint256",
                    "name": "created",
                    "type": "uint256"
                },
                {
                    "internalType": "uint256",
                    "name": "finished",
                    "type": "uint256"
                },
                {
                    "internalType": "enum XperiendNFT.Status",
                    "name": "status",
                    "type": "uint8"
                }
            ],
            "stateMutability": "view",
            "type": "function"
        },
        {
            "inputs": [
                {
                    "internalType": "bytes32",
                    "name": "role",
                    "type": "bytes32"
                },
                {
                    "internalType": "address",
                    "name": "account",
                    "type": "address"
                }
            ],
            "name": "renounceRole",
            "outputs": [],
            "stateMutability": "nonpayable",
            "type": "function"
        },
        {
            "inputs": [
                {
                    "internalType": "bytes32",
                    "name": "role",
                    "type": "bytes32"
                },
                {
                    "internalType": "address",
                    "name": "account",
                    "type": "address"
                }
            ],
            "name": "revokeRole",
            "outputs": [],
            "stateMutability": "nonpayable",
            "type": "function"
        },
        {
            "inputs": [
                {
                    "internalType": "address",
                    "name": "_to",
                    "type": "address"
                },
                {
                    "internalType": "string",
                    "name": "_tokenHash",
                    "type": "string"
                },
                {
                    "internalType": "string",
                    "name": "documentId",
                    "type": "string"
                },
                {
                    "internalType": "uint256",
                    "name": "projectId",
                    "type": "uint256"
                }
            ],
            "name": "safeMint",
            "outputs": [],
            "stateMutability": "nonpayable",
            "type": "function"
        },
        {
            "inputs": [
                {
                    "internalType": "address",
                    "name": "from",
                    "type": "address"
                },
                {
                    "internalType": "address",
                    "name": "to",
                    "type": "address"
                },
                {
                    "internalType": "uint256",
                    "name": "tokenId",
                    "type": "uint256"
                }
            ],
            "name": "safeTransferFrom",
            "outputs": [],
            "stateMutability": "nonpayable",
            "type": "function"
        },
        {
            "inputs": [
                {
                    "internalType": "address",
                    "name": "from",
                    "type": "address"
                },
                {
                    "internalType": "address",
                    "name": "to",
                    "type": "address"
                },
                {
                    "internalType": "uint256",
                    "name": "tokenId",
                    "type": "uint256"
                },
                {
                    "internalType": "bytes",
                    "name": "_data",
                    "type": "bytes"
                }
            ],
            "name": "safeTransferFrom",
            "outputs": [],
            "stateMutability": "nonpayable",
            "type": "function"
        },
        {
            "inputs": [
                {
                    "internalType": "address",
                    "name": "operator",
                    "type": "address"
                },
                {
                    "internalType": "bool",
                    "name": "approved",
                    "type": "bool"
                }
            ],
            "name": "setApprovalForAll",
            "outputs": [],
            "stateMutability": "nonpayable",
            "type": "function"
        },
        {
            "inputs": [
                {
                    "internalType": "bytes4",
                    "name": "interfaceId",
                    "type": "bytes4"
                }
            ],
            "name": "supportsInterface",
            "outputs": [
                {
                    "internalType": "bool",
                    "name": "",
                    "type": "bool"
                }
            ],
            "stateMutability": "view",
            "type": "function"
        },
        {
            "inputs": [],
            "name": "symbol",
            "outputs": [
                {
                    "internalType": "string",
                    "name": "",
                    "type": "string"
                }
            ],
            "stateMutability": "view",
            "type": "function"
        },
        {
            "inputs": [
                {
                    "internalType": "uint256",
                    "name": "tokenId",
                    "type": "uint256"
                }
            ],
            "name": "tokenURI",
            "outputs": [
                {
                    "internalType": "string",
                    "name": "",
                    "type": "string"
                }
            ],
            "stateMutability": "view",
            "type": "function"
        },
        {
            "inputs": [
                {
                    "internalType": "address",
                    "name": "from",
                    "type": "address"
                },
                {
                    "internalType": "address",
                    "name": "to",
                    "type": "address"
                },
                {
                    "internalType": "uint256",
                    "name": "tokenId",
                    "type": "uint256"
                }
            ],
            "name": "transferFrom",
            "outputs": [],
            "stateMutability": "nonpayable",
            "type": "function"
        },
        {
            "inputs": [
                {
                    "internalType": "uint256",
                    "name": "_tokenId",
                    "type": "uint256"
                },
                {
                    "internalType": "string",
                    "name": "_ipfsHash",
                    "type": "string"
                }
            ],
            "name": "updateIpfsHash",
            "outputs": [],
            "stateMutability": "nonpayable",
            "type": "function"
        }
    ],
    "transactionHash": "0x6f97a8c91393338c453b09ca6f1c7de8a769b49f1c268c88f6405e3876cf7a59",
    "args": [],
    "solcInputHash": "1d9e3626e19f047b69584dcab75a29e1",
    "bytecode": "0x608060405234801561001057600080fd5b50613c9f806100206000396000f3fe608060405234801561001057600080fd5b506004361061030c5760003560e01c806370a082311161019d578063af640d0f116100e9578063d547741f116100a2578063e985e9c51161007c578063e985e9c5146107ea578063f41f0ad514610826578063f59489e314610839578063f70444891461084c57600080fd5b8063d547741f14610779578063d69febd71461078c578063dc564aca146107d757600080fd5b8063af640d0f1461070a578063b09afec114610713578063b1b3d3f614610733578063b88d4fde14610740578063bfb5b62014610753578063c87b56dd1461076657600080fd5b806395d89b41116101565780639e17403b116101305780639e17403b146106c7578063a217fddf146106dc578063a22cb465146106e4578063a60bec64146106f757600080fd5b806395d89b41146106995780639611c051146106a15780639dc5e02f146106b457600080fd5b806370a08231146105d85780637920b375146105eb5780638129fc1c146105fe57806381c45e9b1461060657806383b4918b1461067357806391d148541461068657600080fd5b806330b6c4201161025c5780635658222d116102155780635d3d08a8116101ef5780635d3d08a81461058c5780635e158bf21461059f5780636352211e146105b257806367311dd6146105c557600080fd5b80635658222d1461055157806356e8dc66146105595780635aef24471461056c57600080fd5b806330b6c420146104df57806336568abe146104f2578063379607f51461050557806342842e0e1461051857806342966c681461052b578063543906e71461053e57600080fd5b80631c5a6995116102c9578063248a9ca3116102a3578063248a9ca31461043a57806325d9f9d91461045d5780632d7fff6b146104705780632f2ff15d146104cc57600080fd5b80631c5a6995146103e65780631fd05ea21461040657806323b872dd1461042757600080fd5b806301ffc9a71461031157806306fdde0314610339578063081812fc1461034e578063095ea7b3146103795780630b9d58471461038e578063150b7a02146103ae575b600080fd5b61032461031f366004613483565b61085f565b60405190151581526020015b60405180910390f35b6103416108a5565b60405161033091906137ef565b61036161035c366004613447565b610937565b6040516001600160a01b039091168152602001610330565b61038c61038736600461341d565b6109d1565b005b6103a161039c366004613447565b610ae7565b60405161033091906139fe565b6103cd6103bc36600461324e565b630a85bd0160e11b95945050505050565b6040516001600160e01b03199091168152602001610330565b6103f96103f43660046131c4565b610b8d565b60405161033091906137ab565b610419610414366004613504565b610bfa565b604051908152602001610330565b61038c610435366004613212565b610c2c565b610419610448366004613447565b60009081526065602052604090206001015490565b61032461046b366004613504565b610c9f565b6104bb61047e366004613447565b61010160205260009081526040902080546001820154600283015460038401546004909401546001600160a01b0390931693919290919060ff1685565b604051610330959493929190613779565b61038c6104da366004613460565b610e8f565b6104196104ed36600461341d565b610eb5565b61038c610500366004613460565b610ed2565b610324610513366004613447565b610f50565b61038c610526366004613212565b611116565b61038c610539366004613447565b611131565b6103f961054c3660046131c4565b6111ab565b610324611216565b6103f96105673660046131c4565b611270565b61057f61057a366004613447565b6112da565b60405161033091906139f0565b61032461059a366004613447565b611350565b6103246105ad366004613526565b611472565b6103616105c0366004613447565b61156c565b6103246105d3366004613447565b6115e3565b6104196105e63660046131c4565b6116f0565b6103246105f9366004613447565b611777565b61038c61183d565b610660610614366004613447565b60fe6020526000908152604090208054600182015460028301546003840154600485015460058601546006909601546001600160a01b0395861696959094169492939192909160ff1687565b60405161033097969594939291906136fc565b610324610681366004613447565b611910565b610324610694366004613460565b611afa565b610341611b25565b61038c6106af3660046134bd565b611b34565b6103246106c2366004613447565b611b59565b610419600080516020613c4a83398151915281565b610419600081565b61038c6106f2366004613365565b611c66565b61041961070536600461341d565b611d2b565b61041960fc5481565b610726610721366004613447565b611d47565b6040516103309190613a61565b6097546103249060ff1681565b61038c61074e3660046132e9565b611edc565b61038c6107613660046133a1565b611f55565b610341610774366004613447565b612075565b61038c610787366004613460565b61215d565b6104bb61079a366004613447565b61010360205260009081526040902080546001820154600283015460038401546004909401546001600160a01b0390931693919290919060ff1685565b61057f6107e5366004613447565b612183565b6103246107f83660046131df565b6001600160a01b039182166000908152609d6020908152604080832093909416825291909152205460ff1690565b61041961083436600461341d565b6121f9565b610324610847366004613460565b612216565b6103f961085a366004613447565b612322565b60006001600160e01b031982166380ac58cd60e01b148061089057506001600160e01b03198216635b5e139f60e01b145b8061089f575061089f82612383565b92915050565b6060609880546108b490613b5b565b80601f01602080910402602001604051908101604052809291908181526020018280546108e090613b5b565b801561092d5780601f106109025761010080835404028352916020019161092d565b820191906000526020600020905b81548152906001019060200180831161091057829003601f168201915b5050505050905090565b6000818152609a60205260408120546001600160a01b03166109b55760405162461bcd60e51b815260206004820152602c60248201527f4552433732313a20617070726f76656420717565727920666f72206e6f6e657860448201526b34b9ba32b73a103a37b5b2b760a11b60648201526084015b60405180910390fd5b506000908152609c60205260409020546001600160a01b031690565b60006109dc8261156c565b9050806001600160a01b0316836001600160a01b03161415610a4a5760405162461bcd60e51b815260206004820152602160248201527f4552433732313a20617070726f76616c20746f2063757272656e74206f776e656044820152603960f91b60648201526084016109ac565b336001600160a01b0382161480610a665750610a6681336107f8565b610ad85760405162461bcd60e51b815260206004820152603860248201527f4552433732313a20617070726f76652063616c6c6572206973206e6f74206f7760448201527f6e6572206e6f7220617070726f76656420666f7220616c6c000000000000000060648201526084016109ac565b610ae283836123b8565b505050565b610aef612fdc565b600082815260fe6020908152604091829020825160e08101845281546001600160a01b03908116825260018301541692810192909252600280820154938301939093526003810154606083015260048101546080830152600581015460a083015260068101549192909160c084019160ff90911690811115610b7357610b73613bf1565b6002811115610b8457610b84613bf1565b90525092915050565b6001600160a01b03811660009081526101046020908152604091829020805483518184028101840190945280845260609392830182828015610bee57602002820191906000526020600020905b815481526020019060010190808311610bda575b50505050509050919050565b6101006020528160005260406000208181548110610c1757600080fd5b90600052602060002001600091509150505481565b610c44600080516020613c4a83398151915283611afa565b80610c51575060975460ff165b610c6d5760405162461bcd60e51b81526004016109ac90613802565b610c78335b82612426565b610c945760405162461bcd60e51b81526004016109ac90613968565b610ae2838383612519565b600033610cab8361156c565b6001600160a01b031614610cd15760405162461bcd60e51b81526004016109ac90613911565b6002600083815260fe602052604090206006015460ff166002811115610cf957610cf9613bf1565b1415610d5d5760405162461bcd60e51b815260206004820152602d60248201527f546869732065786368616e6765207761732063726561746564206265666f726560448201526c08185b990818d85b98d95b1959609a1b60648201526084016109ac565b610d8333308460405180604001604052806002815260200161060f60f31b815250611edc565b6040805160e08101825233815230602080830191825282840187815260608401878152426080860181815260a08701918252600160c0880181815260008c815260fe90975298909520875181546001600160a01b03199081166001600160a01b039283161783559751828801805490991691161790965592516002808701919091559151600386015591516004850155905160058401559351600683018054949586959293919260ff191691908490811115610e4157610e41613bf1565b02179055505033600090815260ff6020908152604080832080546001808201835591855283852001889055978352610100825282208054808901825590835291200193909355509192915050565b600082815260656020526040902060010154610eab81336126fa565b610ae2838361275e565b6101046020528160005260406000208181548110610c1757600080fd5b6001600160a01b0381163314610f425760405162461bcd60e51b815260206004820152602f60248201527f416363657373436f6e74726f6c3a2063616e206f6e6c792072656e6f756e636560448201526e103937b632b9903337b91039b2b63360891b60648201526084016109ac565b610f4c82826127e4565b5050565b600033610f5c8361156c565b6001600160a01b031614610f825760405162461bcd60e51b81526004016109ac90613911565b60026000838152610101602052604090206004015460ff166002811115610fab57610fab613bf1565b1415610feb5760405162461bcd60e51b815260206004820152600f60248201526e43616e63656c6564206265666f726560881b60448201526064016109ac565b61101133308460405180604001604052806002815260200161060f60f31b81525061284b565b60006040518060a00160405280336001600160a01b031681526020018481526020014281526020014281526020016001600281111561105257611052613bf1565b815250905080610101600085815260200190815260200160002060008201518160000160006101000a8154816001600160a01b0302191690836001600160a01b0316021790555060208201518160010155604082015181600201556060820151816003015560808201518160040160006101000a81548160ff021916908360028111156110e1576110e1613bf1565b021790555050336000908152610102602090815260408220805460018181018355918452919092200194909455509192915050565b610ae283838360405180602001604052806000815250611edc565b61113a33610c72565b61119f5760405162461bcd60e51b815260206004820152603060248201527f4552433732314275726e61626c653a2063616c6c6572206973206e6f74206f7760448201526f1b995c881b9bdc88185c1c1c9bdd995960821b60648201526084016109ac565b6111a88161287e565b50565b6001600160a01b03811660009081526101026020908152604091829020805483518184028101840190945280845260609392830182828015610bee5760200282019190600052602060002090815481526020019060010190808311610bda5750505050509050919050565b60006112228133611afa565b61123e5760405162461bcd60e51b81526004016109ac90613939565b60975460ff1615611258576097805460ff19169055611266565b6097805460ff191660011790555b5060975460ff1690565b6001600160a01b038116600090815260ff6020908152604091829020805483518184028101840190945280845260609392830182828015610bee5760200282019190600052602060002090815481526020019060010190808311610bda5750505050509050919050565b6112e261303b565b60008281526101016020908152604091829020825160a08101845281546001600160a01b031681526001820154928101929092526002808201549383019390935260038101546060830152600481015491929091608084019160ff90911690811115610b7357610b73613bf1565b600061135c8133611afa565b6113785760405162461bcd60e51b81526004016109ac90613939565b6001600083815260fe602052604090206006015460ff1660028111156113a0576113a0613bf1565b146113bd5760405162461bcd60e51b81526004016109ac9061389a565b306113c78361156c565b6001600160a01b0316146113ed5760405162461bcd60e51b81526004016109ac906139b9565b600082815260fe60209081526040918290205482518084019093526002835261060f60f31b918301919091526114309130916001600160a01b031690859061284b565b600082815260fe6020526040902060060180546002919060ff19166001835b021790555050600081815260fe602052604090204260059091015560015b919050565b600061147e8133611afa565b61149a5760405162461bcd60e51b81526004016109ac90613939565b60016000868152610103602052604090206004015460ff1660028111156114c3576114c3613bf1565b146114e05760405162461bcd60e51b81526004016109ac9061389a565b306114ea8661156c565b6001600160a01b0316146115105760405162461bcd60e51b81526004016109ac906139b9565b6115198561287e565b6000858152610103602052604090205461153e906001600160a01b0316848487611f55565b5060008481526101036020526040902060048101805460ff191690554260039091015560015b949350505050565b6000818152609a60205260408120546001600160a01b03168061089f5760405162461bcd60e51b815260206004820152602960248201527f4552433732313a206f776e657220717565727920666f72206e6f6e657869737460448201526832b73a103a37b5b2b760b91b60648201526084016109ac565b60006115ef8133611afa565b61160b5760405162461bcd60e51b81526004016109ac90613939565b60016000838152610103602052604090206004015460ff16600281111561163457611634613bf1565b146116515760405162461bcd60e51b81526004016109ac9061389a565b3061165b8361156c565b6001600160a01b0316146116815760405162461bcd60e51b81526004016109ac906139b9565b600082815261010360209081526040918290205482518084019093526002835261060f60f31b918301919091526116c59130916001600160a01b031690859061284b565b5060009081526101036020526040902060048101805460ff1916600217905542600390910155600190565b60006001600160a01b03821661175b5760405162461bcd60e51b815260206004820152602a60248201527f4552433732313a2062616c616e636520717565727920666f7220746865207a65604482015269726f206164647265737360b01b60648201526084016109ac565b506001600160a01b03166000908152609b602052604090205490565b60006117838133611afa565b61179f5760405162461bcd60e51b81526004016109ac90613939565b60016000838152610101602052604090206004015460ff1660028111156117c8576117c8613bf1565b146117e55760405162461bcd60e51b81526004016109ac9061389a565b306117ef8361156c565b6001600160a01b0316146118155760405162461bcd60e51b81526004016109ac906139b9565b61181e8261287e565b600082815260fe60205260408120600601805460ff191660018361144f565b600054610100900460ff1680611856575060005460ff16155b6118725760405162461bcd60e51b81526004016109ac906138c3565b600054610100900460ff16158015611894576000805461ffff19166101011790555b61189f600033612919565b6118e4604051806040016040528060088152602001671614915397d3919560c21b81525060405180604001604052806003815260200162534e5960e81b815250612923565b6118fc600080516020613c4a83398151915230612919565b80156111a8576000805461ff001916905550565b60003361191c8361156c565b6001600160a01b0316146119425760405162461bcd60e51b81526004016109ac90613911565b60026000838152610103602052604090206004015460ff16600281111561196b5761196b613bf1565b14156119cf5760405162461bcd60e51b815260206004820152602d60248201527f54686973207265696e76657374207761732063726561746564206265666f726560448201526c08185b990818d85b98d95b1959609a1b60648201526084016109ac565b6119f533308460405180604001604052806002815260200161060f60f31b81525061284b565b60006040518060a00160405280336001600160a01b0316815260200184815260200142815260200142815260200160016002811115611a3657611a36613bf1565b815250905080610103600085815260200190815260200160002060008201518160000160006101000a8154816001600160a01b0302191690836001600160a01b0316021790555060208201518160010155604082015181600201556060820151816003015560808201518160040160006101000a81548160ff02191690836002811115611ac557611ac5613bf1565b021790555050336000908152610104602090815260408220805460018181018355918452919092200194909455509192915050565b60009182526065602090815260408084206001600160a01b0393909316845291905290205460ff1690565b6060609980546108b490613b5b565b600082815260fd602090815260409091208251610ae29260019092019184019061307e565b6000611b658133611afa565b611b815760405162461bcd60e51b81526004016109ac90613939565b60016000838152610101602052604090206004015460ff166002811115611baa57611baa613bf1565b14611bc75760405162461bcd60e51b81526004016109ac9061389a565b30611bd18361156c565b6001600160a01b031614611bf75760405162461bcd60e51b81526004016109ac906139b9565b600082815261010160209081526040918290205482518084019093526002835261060f60f31b91830191909152611c3b9130916001600160a01b031690859061284b565b5060009081526101016020526040902060048101805460ff1916600217905542600390910155600190565b6001600160a01b038216331415611cbf5760405162461bcd60e51b815260206004820152601960248201527f4552433732313a20617070726f766520746f2063616c6c65720000000000000060448201526064016109ac565b336000818152609d602090815260408083206001600160a01b03871680855290835292819020805460ff191686151590811790915590519081529192917f17307eab39ab6107e8899845ad3d59bd9653f200f220920489ca2b5937696c31910160405180910390a35050565b60ff6020528160005260406000208181548110610c1757600080fd5b611d7b604051806080016040528060006001600160a01b031681526020016060815260200160008152602001606081525090565b600082815260fd602090815260409182902082516080810190935280546001600160a01b031683526001810180549192840191611db790613b5b565b80601f0160208091040260200160405190810160405280929190818152602001828054611de390613b5b565b8015611e305780601f10611e0557610100808354040283529160200191611e30565b820191906000526020600020905b815481529060010190602001808311611e1357829003601f168201915b5050505050815260200160028201548152602001600382018054611e5390613b5b565b80601f0160208091040260200160405190810160405280929190818152602001828054611e7f90613b5b565b8015611ecc5780601f10611ea157610100808354040283529160200191611ecc565b820191906000526020600020905b815481529060010190602001808311611eaf57829003601f168201915b5050505050815250509050919050565b611ef4600080516020613c4a83398151915284611afa565b80611f01575060975460ff165b611f1d5760405162461bcd60e51b81526004016109ac90613802565b611f273383612426565b611f435760405162461bcd60e51b81526004016109ac90613968565b611f4f8484848461284b565b50505050565b611f60600033611afa565b611f7c5760405162461bcd60e51b81526004016109ac90613939565b60fc8054906000611f8c83613b96565b9091555050604080516080810182526001600160a01b03868116825260208083018781528385018690526060840187905260fc54600090815260fd835294909420835181546001600160a01b03191693169290921782559251805192938493611ffb926001850192019061307e565b50604082015160028201556060820151805161202191600384019160209091019061307e565b509050506120318560fc546129aa565b7f9e55dcc1ebb4b32b970725415987c55850d46325fa3af75720b2927dc7d6f1928560fc548660405161206693929190613749565b60405180910390a15050505050565b6000818152609a60205260409020546060906001600160a01b03166120f45760405162461bcd60e51b815260206004820152602f60248201527f4552433732314d657461646174613a2055524920717565727920666f72206e6f60448201526e3732bc34b9ba32b73a103a37b5b2b760891b60648201526084016109ac565b600061210b60408051602081019091526000815290565b9050600081511161212b5760405180602001604052806000815250612156565b80612135846129c4565b60405160200161214692919061361b565b6040516020818303038152906040525b9392505050565b60008281526065602052604090206001015461217981336126fa565b610ae283836127e4565b61218b61303b565b60008281526101036020908152604091829020825160a08101845281546001600160a01b031681526001820154928101929092526002808201549383019390935260038101546060830152600481015491929091608084019160ff90911690811115610b7357610b73613bf1565b6101026020528160005260406000208181548110610c1757600080fd5b60006122228133611afa565b61223e5760405162461bcd60e51b81526004016109ac90613939565b6001600084815260fe602052604090206006015460ff16600281111561226657612266613bf1565b146122835760405162461bcd60e51b81526004016109ac9061389a565b3061228d8461156c565b6001600160a01b0316146122b35760405162461bcd60e51b81526004016109ac906139b9565b6122d930838560405180604001604052806002815260200161060f60f31b81525061284b565b50600091825260fe6020526040909120600180820180546001600160a01b0319166001600160a01b039094169390931790925560068101805460ff191690554260059091015590565b60008181526101006020908152604091829020805483518184028101840190945280845260609392830182828015610bee5760200282019190600052602060002090815481526020019060010190808311610bda5750505050509050919050565b60006001600160e01b03198216637965db0b60e01b148061089f57506301ffc9a760e01b6001600160e01b031983161461089f565b6000818152609c6020526040902080546001600160a01b0319166001600160a01b03841690811790915581906123ed8261156c565b6001600160a01b03167f8c5be1e5ebec7d5bd14f71427d1e84f3dd0314c0f7b2291e5b200ac8c7c3b92560405160405180910390a45050565b6000818152609a60205260408120546001600160a01b031661249f5760405162461bcd60e51b815260206004820152602c60248201527f4552433732313a206f70657261746f7220717565727920666f72206e6f6e657860448201526b34b9ba32b73a103a37b5b2b760a11b60648201526084016109ac565b60006124aa8361156c565b9050806001600160a01b0316846001600160a01b031614806124e55750836001600160a01b03166124da84610937565b6001600160a01b0316145b8061156457506001600160a01b038082166000908152609d602090815260408083209388168352929052205460ff16611564565b612531600080516020613c4a83398151915283611afa565b8061253e575060975460ff165b61255a5760405162461bcd60e51b81526004016109ac90613802565b826001600160a01b031661256d8261156c565b6001600160a01b0316146125d55760405162461bcd60e51b815260206004820152602960248201527f4552433732313a207472616e73666572206f6620746f6b656e2074686174206960448201526839903737ba1037bbb760b91b60648201526084016109ac565b6001600160a01b0382166126375760405162461bcd60e51b8152602060048201526024808201527f4552433732313a207472616e7366657220746f20746865207a65726f206164646044820152637265737360e01b60648201526084016109ac565b6126426000826123b8565b6001600160a01b0383166000908152609b6020526040812080546001929061266b908490613b01565b90915550506001600160a01b0382166000908152609b60205260408120805460019290612699908490613ab6565b90915550506000818152609a602052604080822080546001600160a01b0319166001600160a01b0386811691821790925591518493918716917fddf252ad1be2c89b69c2b068fc378daa952ba7f163c4a11628f55a4df523b3ef91a4505050565b6127048282611afa565b610f4c5761271c816001600160a01b03166014612ac2565b612727836020612ac2565b60405160200161273892919061364a565b60408051601f198184030181529082905262461bcd60e51b82526109ac916004016137ef565b6127688282611afa565b610f4c5760008281526065602090815260408083206001600160a01b03851684529091529020805460ff191660011790556127a03390565b6001600160a01b0316816001600160a01b0316837f2f8788117e7eff1d82e926ec794901d17c78024a50270940304540a733656f0d60405160405180910390a45050565b6127ee8282611afa565b15610f4c5760008281526065602090815260408083206001600160a01b0385168085529252808320805460ff1916905551339285917ff6391f5c32d9c69d2a47ea670b442974b53935d1edc7fd64eb21e047a839171b9190a45050565b612856848484612519565b61286284848484612c5e565b611f4f5760405162461bcd60e51b81526004016109ac90613848565b60006128898261156c565b90506128966000836123b8565b6001600160a01b0381166000908152609b602052604081208054600192906128bf908490613b01565b90915550506000828152609a602052604080822080546001600160a01b0319169055518391906001600160a01b038416907fddf252ad1be2c89b69c2b068fc378daa952ba7f163c4a11628f55a4df523b3ef908390a45050565b610f4c828261275e565b600054610100900460ff168061293c575060005460ff16155b6129585760405162461bcd60e51b81526004016109ac906138c3565b600054610100900460ff1615801561297a576000805461ffff19166101011790555b612982612d68565b61298a612d68565b6129948383612dd2565b8015610ae2576000805461ff0019169055505050565b610f4c828260405180602001604052806000815250612e67565b6060816129e85750506040805180820190915260018152600360fc1b602082015290565b8160005b8115612a1257806129fc81613b96565b9150612a0b9050600a83613ace565b91506129ec565b60008167ffffffffffffffff811115612a2d57612a2d613c1d565b6040519080825280601f01601f191660200182016040528015612a57576020820181803683370190505b5090505b841561156457612a6c600183613b01565b9150612a79600a86613bb1565b612a84906030613ab6565b60f81b818381518110612a9957612a99613c07565b60200101906001600160f81b031916908160001a905350612abb600a86613ace565b9450612a5b565b60606000612ad1836002613ae2565b612adc906002613ab6565b67ffffffffffffffff811115612af457612af4613c1d565b6040519080825280601f01601f191660200182016040528015612b1e576020820181803683370190505b509050600360fc1b81600081518110612b3957612b39613c07565b60200101906001600160f81b031916908160001a905350600f60fb1b81600181518110612b6857612b68613c07565b60200101906001600160f81b031916908160001a9053506000612b8c846002613ae2565b612b97906001613ab6565b90505b6001811115612c0f576f181899199a1a9b1b9c1cb0b131b232b360811b85600f1660108110612bcb57612bcb613c07565b1a60f81b828281518110612be157612be1613c07565b60200101906001600160f81b031916908160001a90535060049490941c93612c0881613b44565b9050612b9a565b5083156121565760405162461bcd60e51b815260206004820181905260248201527f537472696e67733a20686578206c656e67746820696e73756666696369656e7460448201526064016109ac565b60006001600160a01b0384163b15612d6057604051630a85bd0160e11b81526001600160a01b0385169063150b7a0290612ca29033908990889088906004016136bf565b602060405180830381600087803b158015612cbc57600080fd5b505af1925050508015612cec575060408051601f3d908101601f19168201909252612ce9918101906134a0565b60015b612d46573d808015612d1a576040519150601f19603f3d011682016040523d82523d6000602084013e612d1f565b606091505b508051612d3e5760405162461bcd60e51b81526004016109ac90613848565b805181602001fd5b6001600160e01b031916630a85bd0160e11b149050611564565b506001611564565b600054610100900460ff1680612d81575060005460ff16155b612d9d5760405162461bcd60e51b81526004016109ac906138c3565b600054610100900460ff161580156118fc576000805461ffff191661010117905580156111a8576000805461ff001916905550565b600054610100900460ff1680612deb575060005460ff16155b612e075760405162461bcd60e51b81526004016109ac906138c3565b600054610100900460ff16158015612e29576000805461ffff19166101011790555b8251612e3c90609890602086019061307e565b508151612e5090609990602085019061307e565b508015610ae2576000805461ff0019169055505050565b612e718383612e9a565b612e7e6000848484612c5e565b610ae25760405162461bcd60e51b81526004016109ac90613848565b6001600160a01b038216612ef05760405162461bcd60e51b815260206004820181905260248201527f4552433732313a206d696e7420746f20746865207a65726f206164647265737360448201526064016109ac565b6000818152609a60205260409020546001600160a01b031615612f555760405162461bcd60e51b815260206004820152601c60248201527f4552433732313a20746f6b656e20616c7265616479206d696e7465640000000060448201526064016109ac565b6001600160a01b0382166000908152609b60205260408120805460019290612f7e908490613ab6565b90915550506000818152609a602052604080822080546001600160a01b0319166001600160a01b03861690811790915590518392907fddf252ad1be2c89b69c2b068fc378daa952ba7f163c4a11628f55a4df523b3ef908290a45050565b6040518060e0016040528060006001600160a01b0316815260200160006001600160a01b03168152602001600081526020016000815260200160008152602001600081526020016000600281111561303657613036613bf1565b905290565b6040518060a0016040528060006001600160a01b031681526020016000815260200160008152602001600081526020016000600281111561303657613036613bf1565b82805461308a90613b5b565b90600052602060002090601f0160209004810192826130ac57600085556130f2565b82601f106130c557805160ff19168380011785556130f2565b828001600101855582156130f2579182015b828111156130f25782518255916020019190600101906130d7565b506130fe929150613102565b5090565b5b808211156130fe5760008155600101613103565b600067ffffffffffffffff8084111561313257613132613c1d565b604051601f8501601f19908116603f0116810190828211818310171561315a5761315a613c1d565b8160405280935085815286868601111561317357600080fd5b858560208301376000602087830101525050509392505050565b80356001600160a01b038116811461146d57600080fd5b600082601f8301126131b557600080fd5b61215683833560208501613117565b6000602082840312156131d657600080fd5b6121568261318d565b600080604083850312156131f257600080fd5b6131fb8361318d565b91506132096020840161318d565b90509250929050565b60008060006060848603121561322757600080fd5b6132308461318d565b925061323e6020850161318d565b9150604084013590509250925092565b60008060008060006080868803121561326657600080fd5b61326f8661318d565b945061327d6020870161318d565b935060408601359250606086013567ffffffffffffffff808211156132a157600080fd5b818801915088601f8301126132b557600080fd5b8135818111156132c457600080fd5b8960208285010111156132d657600080fd5b9699959850939650602001949392505050565b600080600080608085870312156132ff57600080fd5b6133088561318d565b93506133166020860161318d565b925060408501359150606085013567ffffffffffffffff81111561333957600080fd5b8501601f8101871361334a57600080fd5b61335987823560208401613117565b91505092959194509250565b6000806040838503121561337857600080fd5b6133818361318d565b91506020830135801515811461339657600080fd5b809150509250929050565b600080600080608085870312156133b757600080fd5b6133c08561318d565b9350602085013567ffffffffffffffff808211156133dd57600080fd5b6133e9888389016131a4565b945060408701359150808211156133ff57600080fd5b5061340c878288016131a4565b949793965093946060013593505050565b6000806040838503121561343057600080fd5b6134398361318d565b946020939093013593505050565b60006020828403121561345957600080fd5b5035919050565b6000806040838503121561347357600080fd5b823591506132096020840161318d565b60006020828403121561349557600080fd5b813561215681613c33565b6000602082840312156134b257600080fd5b815161215681613c33565b600080604083850312156134d057600080fd5b82359150602083013567ffffffffffffffff8111156134ee57600080fd5b6134fa858286016131a4565b9150509250929050565b6000806040838503121561351757600080fd5b50508035926020909101359150565b6000806000806080858703121561353c57600080fd5b8435935060208501359250604085013567ffffffffffffffff8082111561356257600080fd5b61356e888389016131a4565b9350606087013591508082111561358457600080fd5b50613359878288016131a4565b600081518084526135a9816020860160208601613b18565b601f01601f19169290920160200192915050565b600381106135db57634e487b7160e01b600052602160045260246000fd5b9052565b60018060a01b0381511682526020810151602083015260408101516040830152606081015160608301526080810151610ae260808401826135bd565b6000835161362d818460208801613b18565b835190830190613641818360208801613b18565b01949350505050565b7f416363657373436f6e74726f6c3a206163636f756e7420000000000000000000815260008351613682816017850160208801613b18565b7001034b99036b4b9b9b4b733903937b6329607d1b60179184019182015283516136b3816028840160208801613b18565b01602801949350505050565b6001600160a01b03858116825284166020820152604081018390526080606082018190526000906136f290830184613591565b9695505050505050565b6001600160a01b0388811682528716602082015260408101869052606081018590526080810184905260a0810183905260e0810161373d60c08301846135bd565b98975050505050505050565b60018060a01b03841681528260208201526060604082015260006137706060830184613591565b95945050505050565b6001600160a01b038616815260208101859052604081018490526060810183905260a081016136f260808301846135bd565b6020808252825182820181905260009190848201906040850190845b818110156137e3578351835292840192918401916001016137c7565b50909695505050505050565b6020815260006121566020830184613591565b60208082526026908201527f4552433732313a2054686973206163636f756e74206973206e6f74206120726560408201526531b2b4bb32b960d11b606082015260800190565b60208082526032908201527f4552433732313a207472616e7366657220746f206e6f6e20455243373231526560408201527131b2b4bb32b91034b6b83632b6b2b73a32b960711b606082015260800190565b6020808252600f908201526e4e6f7420696e2070726f636365737360881b604082015260600190565b6020808252602e908201527f496e697469616c697a61626c653a20636f6e747261637420697320616c72656160408201526d191e481a5b9a5d1a585b1a5e995960921b606082015260800190565b6020808252600e908201526d2737ba101037333a1037bbb732b960911b604082015260600190565b6020808252601590820152744f6e6c79206f776e65722063616e2061636365737360581b604082015260600190565b60208082526031908201527f4552433732313a207472616e736665722063616c6c6572206973206e6f74206f6040820152701ddb995c881b9bdc88185c1c1c9bdd9959607a1b606082015260800190565b60208082526017908201527f436f6e747261637420646f65736e7420686173204e4654000000000000000000604082015260600190565b60a0810161089f82846135df565b600060e08201905060018060a01b038084511683528060208501511660208401525060408301516040830152606083015160608301526080830151608083015260a083015160a083015260c0830151613a5a60c08401826135bd565b5092915050565b602080825282516001600160a01b03168282015282015160806040830152600090613a8f60a0840182613591565b9050604084015160608401526060840151601f198483030160808501526137708282613591565b60008219821115613ac957613ac9613bc5565b500190565b600082613add57613add613bdb565b500490565b6000816000190483118215151615613afc57613afc613bc5565b500290565b600082821015613b1357613b13613bc5565b500390565b60005b83811015613b33578181015183820152602001613b1b565b83811115611f4f5750506000910152565b600081613b5357613b53613bc5565b506000190190565b600181811c90821680613b6f57607f821691505b60208210811415613b9057634e487b7160e01b600052602260045260246000fd5b50919050565b6000600019821415613baa57613baa613bc5565b5060010190565b600082613bc057613bc0613bdb565b500690565b634e487b7160e01b600052601160045260246000fd5b634e487b7160e01b600052601260045260246000fd5b634e487b7160e01b600052602160045260246000fd5b634e487b7160e01b600052603260045260246000fd5b634e487b7160e01b600052604160045260246000fd5b6001600160e01b0319811681146111a857600080fdfe7a97506be97703960d71e3a118f1850a50b01da6957110e8293eacb08d8c6060a26469706673582212200bc8001a115bacf215e2cfa4c5408c950f16a217dd43ed164c64261644586cc964736f6c63430008070033",
    "devdoc": {
        "kind": "dev",
        "methods": {
            "approve(address,uint256)": {
                "details": "See {IERC721-approve}."
            },
            "balanceOf(address)": {
                "details": "See {IERC721-balanceOf}."
            },
            "burn(uint256)": {
                "details": "Burns `tokenId`. See {ERC721-_burn}. Requirements: - The caller must own `tokenId` or be an approved operator."
            },
            "getApproved(uint256)": {
                "details": "See {IERC721-getApproved}."
            },
            "getRoleAdmin(bytes32)": {
                "details": "Returns the admin role that controls `role`. See {grantRole} and {revokeRole}. To change a role's admin, use {_setRoleAdmin}."
            },
            "grantRole(bytes32,address)": {
                "details": "Grants `role` to `account`. If `account` had not been already granted `role`, emits a {RoleGranted} event. Requirements: - the caller must have ``role``'s admin role."
            },
            "hasRole(bytes32,address)": {
                "details": "Returns `true` if `account` has been granted `role`."
            },
            "isApprovedForAll(address,address)": {
                "details": "See {IERC721-isApprovedForAll}."
            },
            "name()": {
                "details": "See {IERC721Metadata-name}."
            },
            "ownerOf(uint256)": {
                "details": "See {IERC721-ownerOf}."
            },
            "renounceRole(bytes32,address)": {
                "details": "Revokes `role` from the calling account. Roles are often managed via {grantRole} and {revokeRole}: this function's purpose is to provide a mechanism for accounts to lose their privileges if they are compromised (such as when a trusted device is misplaced). If the calling account had been granted `role`, emits a {RoleRevoked} event. Requirements: - the caller must be `account`."
            },
            "revokeRole(bytes32,address)": {
                "details": "Revokes `role` from `account`. If `account` had been granted `role`, emits a {RoleRevoked} event. Requirements: - the caller must have ``role``'s admin role."
            },
            "safeTransferFrom(address,address,uint256)": {
                "details": "See {IERC721-safeTransferFrom}."
            },
            "safeTransferFrom(address,address,uint256,bytes)": {
                "details": "See {IERC721-safeTransferFrom}."
            },
            "setApprovalForAll(address,bool)": {
                "details": "See {IERC721-setApprovalForAll}."
            },
            "supportsInterface(bytes4)": {
                "details": "See {IERC165-supportsInterface}."
            },
            "symbol()": {
                "details": "See {IERC721Metadata-symbol}."
            },
            "tokenURI(uint256)": {
                "details": "See {IERC721Metadata-tokenURI}."
            },
            "transferFrom(address,address,uint256)": {
                "details": "See {IERC721-transferFrom}."
            }
        },
        "title": "non fungible tokens ERC721Upgradeable agregarle accessControl y changeAllow ",
        "version": 1
    },
    "userdoc": {
        "kind": "user",
        "methods": {
            "cancelClaim(uint256)": {
                "notice": "funcion para cancelarlo onlyowner, se le devuelve al usuario deberia ser batch?"
            },
            "cancelExchange(uint256)": {
                "notice": "funcion para cancelarlo onlyowner, se le devuelve al usuario deberia ser batch?"
            },
            "cancelReinvest(uint256)": {
                "notice": "funcion para cancelarlo onlyowner, se le devuelve al usuario deberia ser batch?"
            },
            "claimsByAddress(address,uint256)": {
                "notice": "address--> exchanges"
            },
            "claimsByNFT(uint256)": {
                "notice": "nftId-> exchange"
            },
            "endClaim(uint256)": {
                "notice": "funcion para completarlo onlyownwer, se le envia al nuevo dueo "
            },
            "endExchange(uint256,address)": {
                "notice": "funcion para completarlo onlyownwer, se le envia al nuevo dueo "
            },
            "endReinvest(uint256,uint256,string,string)": {
                "notice": "funcion para completarlo onlyownwer, se le envia al nuevo dueo "
            },
            "exchangeByNFT(uint256)": {
                "notice": "nftId-> exchange"
            },
            "exchangesByAddress(address,uint256)": {
                "notice": "address--> exchanges"
            },
            "exchangesByProject(uint256,uint256)": {
                "notice": "project--> exchanges"
            },
            "reinvestByAddress(address,uint256)": {
                "notice": "address--> exchanges"
            },
            "reinvestByNFT(uint256)": {
                "notice": "nftId-> exchange"
            }
        },
        "version": 1
    },
    "storageLayout": {
        "storage": [
            {
                "astId": 459,
                "contract": "contracts/XperiendNFT.sol:XperiendNFT",
                "label": "_initialized",
                "offset": 0,
                "slot": "0",
                "type": "t_bool"
            },
            {
                "astId": 462,
                "contract": "contracts/XperiendNFT.sol:XperiendNFT",
                "label": "_initializing",
                "offset": 1,
                "slot": "0",
                "type": "t_bool"
            },
            {
                "astId": 1951,
                "contract": "contracts/XperiendNFT.sol:XperiendNFT",
                "label": "__gap",
                "offset": 0,
                "slot": "1",
                "type": "t_array(t_uint256)50_storage"
            },
            {
                "astId": 2200,
                "contract": "contracts/XperiendNFT.sol:XperiendNFT",
                "label": "__gap",
                "offset": 0,
                "slot": "51",
                "type": "t_array(t_uint256)50_storage"
            },
            {
                "astId": 94,
                "contract": "contracts/XperiendNFT.sol:XperiendNFT",
                "label": "_roles",
                "offset": 0,
                "slot": "101",
                "type": "t_mapping(t_bytes32,t_struct(RoleData)89_storage)"
            },
            {
                "astId": 379,
                "contract": "contracts/XperiendNFT.sol:XperiendNFT",
                "label": "__gap",
                "offset": 0,
                "slot": "102",
                "type": "t_array(t_uint256)49_storage"
            },
            {
                "astId": 594,
                "contract": "contracts/XperiendNFT.sol:XperiendNFT",
                "label": "allow",
                "offset": 0,
                "slot": "151",
                "type": "t_bool"
            },
            {
                "astId": 596,
                "contract": "contracts/XperiendNFT.sol:XperiendNFT",
                "label": "_name",
                "offset": 0,
                "slot": "152",
                "type": "t_string_storage"
            },
            {
                "astId": 598,
                "contract": "contracts/XperiendNFT.sol:XperiendNFT",
                "label": "_symbol",
                "offset": 0,
                "slot": "153",
                "type": "t_string_storage"
            },
            {
                "astId": 602,
                "contract": "contracts/XperiendNFT.sol:XperiendNFT",
                "label": "_owners",
                "offset": 0,
                "slot": "154",
                "type": "t_mapping(t_uint256,t_address)"
            },
            {
                "astId": 606,
                "contract": "contracts/XperiendNFT.sol:XperiendNFT",
                "label": "_balances",
                "offset": 0,
                "slot": "155",
                "type": "t_mapping(t_address,t_uint256)"
            },
            {
                "astId": 610,
                "contract": "contracts/XperiendNFT.sol:XperiendNFT",
                "label": "_tokenApprovals",
                "offset": 0,
                "slot": "156",
                "type": "t_mapping(t_uint256,t_address)"
            },
            {
                "astId": 616,
                "contract": "contracts/XperiendNFT.sol:XperiendNFT",
                "label": "_operatorApprovals",
                "offset": 0,
                "slot": "157",
                "type": "t_mapping(t_address,t_mapping(t_address,t_bool))"
            },
            {
                "astId": 1443,
                "contract": "contracts/XperiendNFT.sol:XperiendNFT",
                "label": "__gap",
                "offset": 0,
                "slot": "158",
                "type": "t_array(t_uint256)44_storage"
            },
            {
                "astId": 1635,
                "contract": "contracts/XperiendNFT.sol:XperiendNFT",
                "label": "__gap",
                "offset": 0,
                "slot": "202",
                "type": "t_array(t_uint256)50_storage"
            },
            {
                "astId": 8102,
                "contract": "contracts/XperiendNFT.sol:XperiendNFT",
                "label": "id",
                "offset": 0,
                "slot": "252",
                "type": "t_uint256"
            },
            {
                "astId": 8157,
                "contract": "contracts/XperiendNFT.sol:XperiendNFT",
                "label": "nfts",
                "offset": 0,
                "slot": "253",
                "type": "t_mapping(t_uint256,t_struct(tokenData)8111_storage)"
            },
            {
                "astId": 8163,
                "contract": "contracts/XperiendNFT.sol:XperiendNFT",
                "label": "exchangeByNFT",
                "offset": 0,
                "slot": "254",
                "type": "t_mapping(t_uint256,t_struct(Exchanges)8127_storage)"
            },
            {
                "astId": 8169,
                "contract": "contracts/XperiendNFT.sol:XperiendNFT",
                "label": "exchangesByAddress",
                "offset": 0,
                "slot": "255",
                "type": "t_mapping(t_address,t_array(t_uint256)dyn_storage)"
            },
            {
                "astId": 8175,
                "contract": "contracts/XperiendNFT.sol:XperiendNFT",
                "label": "exchangesByProject",
                "offset": 0,
                "slot": "256",
                "type": "t_mapping(t_uint256,t_array(t_uint256)dyn_storage)"
            },
            {
                "astId": 8181,
                "contract": "contracts/XperiendNFT.sol:XperiendNFT",
                "label": "claimsByNFT",
                "offset": 0,
                "slot": "257",
                "type": "t_mapping(t_uint256,t_struct(Claims)8139_storage)"
            },
            {
                "astId": 8187,
                "contract": "contracts/XperiendNFT.sol:XperiendNFT",
                "label": "claimsByAddress",
                "offset": 0,
                "slot": "258",
                "type": "t_mapping(t_address,t_array(t_uint256)dyn_storage)"
            },
            {
                "astId": 8193,
                "contract": "contracts/XperiendNFT.sol:XperiendNFT",
                "label": "reinvestByNFT",
                "offset": 0,
                "slot": "259",
                "type": "t_mapping(t_uint256,t_struct(Reinvest)8151_storage)"
            },
            {
                "astId": 8199,
                "contract": "contracts/XperiendNFT.sol:XperiendNFT",
                "label": "reinvestByAddress",
                "offset": 0,
                "slot": "260",
                "type": "t_mapping(t_address,t_array(t_uint256)dyn_storage)"
            }
        ],
        "types": {
            "t_address": {
                "encoding": "inplace",
                "label": "address",
                "numberOfBytes": "20"
            },
            "t_array(t_uint256)44_storage": {
                "base": "t_uint256",
                "encoding": "inplace",
                "label": "uint256[44]",
                "numberOfBytes": "1408"
            },
            "t_array(t_uint256)49_storage": {
                "base": "t_uint256",
                "encoding": "inplace",
                "label": "uint256[49]",
                "numberOfBytes": "1568"
            },
            "t_array(t_uint256)50_storage": {
                "base": "t_uint256",
                "encoding": "inplace",
                "label": "uint256[50]",
                "numberOfBytes": "1600"
            },
            "t_array(t_uint256)dyn_storage": {
                "base": "t_uint256",
                "encoding": "dynamic_array",
                "label": "uint256[]",
                "numberOfBytes": "32"
            },
            "t_bool": {
                "encoding": "inplace",
                "label": "bool",
                "numberOfBytes": "1"
            },
            "t_bytes32": {
                "encoding": "inplace",
                "label": "bytes32",
                "numberOfBytes": "32"
            },
            "t_enum(Status)8203": {
                "encoding": "inplace",
                "label": "enum XperiendNFT.Status",
                "numberOfBytes": "1"
            },
            "t_mapping(t_address,t_array(t_uint256)dyn_storage)": {
                "encoding": "mapping",
                "key": "t_address",
                "label": "mapping(address => uint256[])",
                "numberOfBytes": "32",
                "value": "t_array(t_uint256)dyn_storage"
            },
            "t_mapping(t_address,t_bool)": {
                "encoding": "mapping",
                "key": "t_address",
                "label": "mapping(address => bool)",
                "numberOfBytes": "32",
                "value": "t_bool"
            },
            "t_mapping(t_address,t_mapping(t_address,t_bool))": {
                "encoding": "mapping",
                "key": "t_address",
                "label": "mapping(address => mapping(address => bool))",
                "numberOfBytes": "32",
                "value": "t_mapping(t_address,t_bool)"
            },
            "t_mapping(t_address,t_uint256)": {
                "encoding": "mapping",
                "key": "t_address",
                "label": "mapping(address => uint256)",
                "numberOfBytes": "32",
                "value": "t_uint256"
            },
            "t_mapping(t_bytes32,t_struct(RoleData)89_storage)": {
                "encoding": "mapping",
                "key": "t_bytes32",
                "label": "mapping(bytes32 => struct AccessControlUpgradeable.RoleData)",
                "numberOfBytes": "32",
                "value": "t_struct(RoleData)89_storage"
            },
            "t_mapping(t_uint256,t_address)": {
                "encoding": "mapping",
                "key": "t_uint256",
                "label": "mapping(uint256 => address)",
                "numberOfBytes": "32",
                "value": "t_address"
            },
            "t_mapping(t_uint256,t_array(t_uint256)dyn_storage)": {
                "encoding": "mapping",
                "key": "t_uint256",
                "label": "mapping(uint256 => uint256[])",
                "numberOfBytes": "32",
                "value": "t_array(t_uint256)dyn_storage"
            },
            "t_mapping(t_uint256,t_struct(Claims)8139_storage)": {
                "encoding": "mapping",
                "key": "t_uint256",
                "label": "mapping(uint256 => struct XperiendNFT.Claims)",
                "numberOfBytes": "32",
                "value": "t_struct(Claims)8139_storage"
            },
            "t_mapping(t_uint256,t_struct(Exchanges)8127_storage)": {
                "encoding": "mapping",
                "key": "t_uint256",
                "label": "mapping(uint256 => struct XperiendNFT.Exchanges)",
                "numberOfBytes": "32",
                "value": "t_struct(Exchanges)8127_storage"
            },
            "t_mapping(t_uint256,t_struct(Reinvest)8151_storage)": {
                "encoding": "mapping",
                "key": "t_uint256",
                "label": "mapping(uint256 => struct XperiendNFT.Reinvest)",
                "numberOfBytes": "32",
                "value": "t_struct(Reinvest)8151_storage"
            },
            "t_mapping(t_uint256,t_struct(tokenData)8111_storage)": {
                "encoding": "mapping",
                "key": "t_uint256",
                "label": "mapping(uint256 => struct XperiendNFT.tokenData)",
                "numberOfBytes": "32",
                "value": "t_struct(tokenData)8111_storage"
            },
            "t_string_storage": {
                "encoding": "bytes",
                "label": "string",
                "numberOfBytes": "32"
            },
            "t_struct(Claims)8139_storage": {
                "encoding": "inplace",
                "label": "struct XperiendNFT.Claims",
                "members": [
                    {
                        "astId": 8129,
                        "contract": "contracts/XperiendNFT.sol:XperiendNFT",
                        "label": "claimer",
                        "offset": 0,
                        "slot": "0",
                        "type": "t_address"
                    },
                    {
                        "astId": 8131,
                        "contract": "contracts/XperiendNFT.sol:XperiendNFT",
                        "label": "nftId",
                        "offset": 0,
                        "slot": "1",
                        "type": "t_uint256"
                    },
                    {
                        "astId": 8133,
                        "contract": "contracts/XperiendNFT.sol:XperiendNFT",
                        "label": "created",
                        "offset": 0,
                        "slot": "2",
                        "type": "t_uint256"
                    },
                    {
                        "astId": 8135,
                        "contract": "contracts/XperiendNFT.sol:XperiendNFT",
                        "label": "finished",
                        "offset": 0,
                        "slot": "3",
                        "type": "t_uint256"
                    },
                    {
                        "astId": 8138,
                        "contract": "contracts/XperiendNFT.sol:XperiendNFT",
                        "label": "status",
                        "offset": 0,
                        "slot": "4",
                        "type": "t_enum(Status)8203"
                    }
                ],
                "numberOfBytes": "160"
            },
            "t_struct(Exchanges)8127_storage": {
                "encoding": "inplace",
                "label": "struct XperiendNFT.Exchanges",
                "members": [
                    {
                        "astId": 8113,
                        "contract": "contracts/XperiendNFT.sol:XperiendNFT",
                        "label": "giver",
                        "offset": 0,
                        "slot": "0",
                        "type": "t_address"
                    },
                    {
                        "astId": 8115,
                        "contract": "contracts/XperiendNFT.sol:XperiendNFT",
                        "label": "receiver",
                        "offset": 0,
                        "slot": "1",
                        "type": "t_address"
                    },
                    {
                        "astId": 8117,
                        "contract": "contracts/XperiendNFT.sol:XperiendNFT",
                        "label": "projectId",
                        "offset": 0,
                        "slot": "2",
                        "type": "t_uint256"
                    },
                    {
                        "astId": 8119,
                        "contract": "contracts/XperiendNFT.sol:XperiendNFT",
                        "label": "nftId",
                        "offset": 0,
                        "slot": "3",
                        "type": "t_uint256"
                    },
                    {
                        "astId": 8121,
                        "contract": "contracts/XperiendNFT.sol:XperiendNFT",
                        "label": "created",
                        "offset": 0,
                        "slot": "4",
                        "type": "t_uint256"
                    },
                    {
                        "astId": 8123,
                        "contract": "contracts/XperiendNFT.sol:XperiendNFT",
                        "label": "finished",
                        "offset": 0,
                        "slot": "5",
                        "type": "t_uint256"
                    },
                    {
                        "astId": 8126,
                        "contract": "contracts/XperiendNFT.sol:XperiendNFT",
                        "label": "status",
                        "offset": 0,
                        "slot": "6",
                        "type": "t_enum(Status)8203"
                    }
                ],
                "numberOfBytes": "224"
            },
            "t_struct(Reinvest)8151_storage": {
                "encoding": "inplace",
                "label": "struct XperiendNFT.Reinvest",
                "members": [
                    {
                        "astId": 8141,
                        "contract": "contracts/XperiendNFT.sol:XperiendNFT",
                        "label": "reinvester",
                        "offset": 0,
                        "slot": "0",
                        "type": "t_address"
                    },
                    {
                        "astId": 8143,
                        "contract": "contracts/XperiendNFT.sol:XperiendNFT",
                        "label": "nftId",
                        "offset": 0,
                        "slot": "1",
                        "type": "t_uint256"
                    },
                    {
                        "astId": 8145,
                        "contract": "contracts/XperiendNFT.sol:XperiendNFT",
                        "label": "created",
                        "offset": 0,
                        "slot": "2",
                        "type": "t_uint256"
                    },
                    {
                        "astId": 8147,
                        "contract": "contracts/XperiendNFT.sol:XperiendNFT",
                        "label": "finished",
                        "offset": 0,
                        "slot": "3",
                        "type": "t_uint256"
                    },
                    {
                        "astId": 8150,
                        "contract": "contracts/XperiendNFT.sol:XperiendNFT",
                        "label": "status",
                        "offset": 0,
                        "slot": "4",
                        "type": "t_enum(Status)8203"
                    }
                ],
                "numberOfBytes": "160"
            },
            "t_struct(RoleData)89_storage": {
                "encoding": "inplace",
                "label": "struct AccessControlUpgradeable.RoleData",
                "members": [
                    {
                        "astId": 86,
                        "contract": "contracts/XperiendNFT.sol:XperiendNFT",
                        "label": "members",
                        "offset": 0,
                        "slot": "0",
                        "type": "t_mapping(t_address,t_bool)"
                    },
                    {
                        "astId": 88,
                        "contract": "contracts/XperiendNFT.sol:XperiendNFT",
                        "label": "adminRole",
                        "offset": 0,
                        "slot": "1",
                        "type": "t_bytes32"
                    }
                ],
                "numberOfBytes": "64"
            },
            "t_struct(tokenData)8111_storage": {
                "encoding": "inplace",
                "label": "struct XperiendNFT.tokenData",
                "members": [
                    {
                        "astId": 8104,
                        "contract": "contracts/XperiendNFT.sol:XperiendNFT",
                        "label": "creator",
                        "offset": 0,
                        "slot": "0",
                        "type": "t_address"
                    },
                    {
                        "astId": 8106,
                        "contract": "contracts/XperiendNFT.sol:XperiendNFT",
                        "label": "ipfsHash",
                        "offset": 0,
                        "slot": "1",
                        "type": "t_string_storage"
                    },
                    {
                        "astId": 8108,
                        "contract": "contracts/XperiendNFT.sol:XperiendNFT",
                        "label": "projectId",
                        "offset": 0,
                        "slot": "2",
                        "type": "t_uint256"
                    },
                    {
                        "astId": 8110,
                        "contract": "contracts/XperiendNFT.sol:XperiendNFT",
                        "label": "documentId",
                        "offset": 0,
                        "slot": "3",
                        "type": "t_string_storage"
                    }
                ],
                "numberOfBytes": "128"
            },
            "t_uint256": {
                "encoding": "inplace",
                "label": "uint256",
                "numberOfBytes": "32"
            }
        }
    }
}